:020000040800F2
:1000000000200020F104000835050008350500082F
:1000100000000000000000000000000000000000E0
:10002000000000000000000000000000BD380008D3
:10003000000000000000000099390008DD390008C8
:1000400035050008350500083505000835050008A8
:10005000350500085126000805270008E51B0008A3
:100060003505000835050008350500083505000888
:100070003505000835050008350500083505000878
:10008000B927000835050008000000003505000804
:100090003505000835050008350500083505000858
:1000A0003505000835050008351A0008C51C00088C
:1000B00035050008000000003505000800000000BC
:1000C0005FF808F180B588B000AF78600023FB616D
:1000D0000023BB6100237B6100233B610023FB60A5
:1000E000654B5A680C231340FB61FB69042B07D056
:1000F000082B09D0002B30D17B68604A1A6030E0B1
:100100007B685E4A1A602CE05B4B5A68F0239B03C5
:100110001340BB61584B5A6880235B0213407B61DC
:10012000BB699B0C0233BB617B69002B05D1BB69AA
:10013000534A5A437B681A6013E04F4BDA6A0F2325
:10014000134001333B614D48396904F01BF8031C2F
:10015000BA695A437B681A6003E07B68474A1A60B1
:10016000C046454B5A68F0231340FB61FB691B09ED
:10017000FB61444AFB69D3181B78DBB2FB607B68E8
:100180001A68FB68DA407B685A603B4B5A68E02388
:10019000DB001340FB61FB691B0AFB61394AFB6909
:1001A000D3181B78DBB2FB607B685A68FB68DA40C7
:1001B0007B689A60304B1A6B80235B00134003D13D
:1001C0007B68314ADA6010E02B4B5A688023DB01F0
:1001D000134005D17B689B685A087B68DA6004E0AD
:1001E0007B689B689A087B68DA60234B1A6B402314
:1001F000134003D17B68254A1A6103E07B688022A3
:1002000012021A611C4B1A6B1023134003D17B6836
:100210001A4A5A6103E07B681A687B685A61164B78
:100220001A6B0323134004D17B689A687B689A6138
:100230001EE0114B1A6B03231340012B04D17B6882
:100240001A687B689A6113E00B4B1A6B0323134007
:10025000022B04D17B68802212029A6108E0064BCF
:100260001A6B03231340032B02D17B68034A9A6164
:10027000BD4608B080BDC0460010024000127A00A2
:1002800000093D0000000020809FD5001280000082
:1002900080B582B000AF78600A1CFB1C1A70FB1C92
:1002A0001B78002B06D0084B074A51697A680A432D
:1002B0005A6106E0044B044A52697968C9430A400E
:1002C0005A61BD4602B080BD0010024080B582B0C8
:1002D00000AF78600A1CFB1C1A70FB1C1B78002BFB
:1002E00006D0084B074A91697A680A439A6106E08A
:1002F000044B044A92697968C9430A409A61BD4631
:1003000002B080BD0010024080B582B000AF7860BE
:100310000A1CFB1C1A70FB1C1B78002B06D0084B18
:10032000074AD1697A680A43DA6106E0044B044A55
:10033000D2697968C9430A40DA61BD4602B080BD1E
:100340000010024080B500AF00F012F8032002F068
:1003500063FB022001F0D0FD032001F0EFFB012040
:1003600000F04CF800F0BAFC0023181CBD4680BD1C
:1003700080B500AF80231B03181C0121FFF788FF05
:10038000084BA022D2021A60064BA022D202DA60E9
:10039000044B802252009A61024B802292009A61A3
:1003A000BD4680BD0008004880B584B000AF7860CD
:1003B00003F052FD00F05CFD031CFB603A1C0C32A4
:1003C000FA23DB00101C191C00F006FC094A094B3B
:1003D0005B699BB2802149004B409BB29382064BE4
:1003E000181C03F015FD03F023FD03F02BFD03F0B3
:1003F000F5FCE3E7000800484C44000880B588B0ED
:1004000004AF78600D4B3A1C08321A600C4B3A1C52
:100410000C321A600B4A0C4B79680091391C083178
:1004200001910021029100210391101C191C5022FE
:10043000002300F017FBBD4604B080BDF818002073
:10044000F4180020A90300085844000880B582B0C1
:1004500000AF786039601E4B7A681A601D4B3A68AD
:100460001A601D4B1B687A689A4211D11B4A1B4BBC
:100470005B6999B21A4B0B409BB29382174A174B98
:100480005B699BB2802189000B439BB293821EE083
:10049000144B1B687A689A4211D1104A0F4B5B6962
:1004A00099B2114B0B409BB293820C4A0B4B5B6988
:1004B0009BB2802149000B439BB2938207E0074A1D
:1004C000064B5B6999B2094B0B409BB29382FEE7E6
:1004D000FC18002000190020F41800200008004833
:1004E000FFFEFFFFF8180020FFFDFFFFFFFCFFFFEE
:1004F000002103E00A4B5B584350043109480A4B82
:1005000042189A42F6D3094A02E0002313600432EB
:10051000074B9A42F9D303F08BFAFFF713FF7047AA
:1005200078450008000000201C0000201C0000206E
:10053000FC190020FEE7000080B586B004AF002360
:100540007B6000F063FA104B1B68002B11D00F4A40
:100550000F4B022100910021019100210291002105
:100560000391101C191C5022002300F07BFA031C7D
:100570007B607B68002B01D172B6FEE77B68181C9C
:10058000BD4602B080BDC0464C000020A906000850
:100590006444000880B588B000AFF860B9607A6044
:1005A0003B600023FB61224B1B68002B3BD03B1CB4
:1005B0001033BA681A603B1C10337A685A603B1CCF
:1005C0001033FA689A603B68002B1FD100F0D0FF0F
:1005D000031C012B0DD1164B19683A1C1032BB6A53
:1005E000081C111C1A1C002302F002FD031CFB61F5
:1005F00019E00F4B1A683B1C1033101C191C002209
:10060000002302F0F5FC031CFB610CE0084B1968A9
:100610003A1C10323B68081C111C1A1C002302F003
:10062000A9FD031CFB61FB69181CBD4608B080BD19
:100630004C00002080B586B002AF78603960194B5D
:100640001B68DB68DB68FB60FB680433181C02F086
:100650007FFAFB68DB69012B1CD1FB689A697B6818
:10066000D118F8683A687B6800F0B0F8031C012BD9
:1006700010D1FA687B6800210091101C00211A1C1F
:100680000023FFF787FF031CBB60BB68002B01D171
:1006900072B6FEE7FB685B6AFA68101C9847BD46B5
:1006A00004B080BD4400002080B584B000AF786005
:1006B0003B1C0833181C00F045F8031CFB60BB68AA
:1006C000FA68101C191C00F003F800F0C1F8EFE7FD
:1006D00080B584B000AF7860396000F039FB3B1C16
:1006E0000833181C00F04EF8031CFB60BB68002B9D
:1006F00020D13B68002B0CD17A68FB689A4208D85D
:1007000000F032FB7A68FB68101C191CFFF792FF9F
:1007100012E00B4B1A687968FB68CB1A101C191C85
:1007200002F0E8FF00F020FB031C002B04D103F0D3
:10073000FBF801E000F018FBBD4604B080BDC046E8
:100740004C00002080B584B000AF78600C4B1B6873
:100750001B685A425341DBB21A1C7B681A607B68E3
:100760001B68002B05D1064B1B68DB681B68FB6010
:1007700001E00023FB60FB68181CBD4604B080BD8F
:100780004400002080B584B000AF786000F070FBBA
:10079000031CFB600C4B1B68FA689A4208D20A4B98
:1007A0001B68181C00F0D6F87B6801221A6002E072
:1007B0007B6800221A60044BFA681A60FB68181CF8
:1007C000BD4604B080BDC0465000002080B586B054
:1007D00000AFF860B9607A603B6000237B61FB6822
:1007E000BA685A60FB68FA681A61BA687B689A420C
:1007F00012D87A683B68D21AFB689B699A4202D386
:1008000001237B611BE0104B1A68FB680433101C4A
:10081000191C02F067F912E07A683B689A4206D226
:10082000BA683B689A4202D301237B6107E0074B19
:100830001A68FB680433101C191C02F053F97B6919
:10084000181CBD4606B080BD4800002044000020B2
:1008500080B58AB002AF6BE03B1C08339B68FB613C
:10086000FB695B69002B04D0FB690433181C02F0A0
:100870006FF93B1D181CFFF785FF031CBB613B1C78
:1008800008331B68012B52D002DC002B05D04FE04F
:10089000022B32D0032B45D04AE03B1C08335A6868
:1008A000FB699B69D1183B1C08335B68F869BA691E
:1008B000FFF78CFF031C012B1ED1FB695B6AFA69F1
:1008C000101C9847FB69DB69012B15D13B1C0833D1
:1008D0005A68FB699B69D318FA6900210091101CC2
:1008E00000211A1C0023FFF755FE031C7B617B6966
:1008F000002B01D172B6FEE71AE03B1C08335A68A0
:10090000FB699A61FB699B69002B01D172B6FEE716
:10091000FB699A69BB69D118F869BA69BB69FFF7C5
:1009200055FF05E0FB69181C03F0CEFB00E0C04654
:10093000074B1A683B1C0833101C191C00220023AB
:1009400002F096FC031C002B86D1BD4608B080BD8A
:100950004C00002080B58AB002AF786040E0294B9F
:100960001B68DB681B68FB61264B1B68DB68DB6868
:10097000BB61BB690433181C02F0EAF8BB695B6A0F
:10098000BA69101C9847BB69DB69012B28D1BB6988
:100990009A69FB69D3187B617A69FB699A420ED91F
:1009A000BB697A695A60BB69BA691A61154B1A68E2
:1009B000BB690433101C191C02F094F810E0BA69EA
:1009C000FB6900210091101C00211A1C0023FFF775
:1009D000E1FD031C3B613B69002B01D172B6FEE7D0
:1009E000084B1B681B68002BB9D1064B1B68FB60CA
:1009F000054B1A68034B1A60034BFA681A60BD4630
:100A000008B080BD440000204800002080B500AF41
:100A100002F098FF0E4B1B68002B15D10D4B181CD4
:100A200002F016F80C4B181C02F012F80B4B094A96
:100A30001A600B4B084A1A6005200C21002202F0B4
:100A40008FFA021C024B1A6002F08CFFBD4680BD7B
:100A50004C0000201C00002030000020440000203A
:100A60004800002090B58BB002AFF860B9603B60E1
:100A7000BB1D1A80FB68002B01D172B6FEE73B6BF1
:100A8000052B01D972B6FEE7BB1D1A88BB6B101C83
:100A9000191C00F027FD031CBB61BB69002B00D1B2
:100AA00074E0BB691A6BBB1D1B8844495B189B0033
:100AB000D3187B617B69072293437B617A690723A3
:100AC000134001D072B6FEE7B869B9683A6BFB6BA8
:100AD000BC1D2488009400F045FC7969FA683B68E5
:100AE000081C111C1A1C02F0B3FE021CBB691A6020
:100AF0007B6B002B02D07B6BBA691A6002F022FF7D
:100B00002F4B1B685A1C2E4B1A602E4B1B68002B58
:100B100009D12C4BBA691A60294B1B68012B0FD1E4
:100B200000F068FC0CE0284B1B68002B08D1254B1B
:100B30001B68DA6A3B6B9A4202D8224BBA691A6088
:100B4000224B1B685A1C214B1A60204B1A68BB6948
:100B50001A64BB69DA6A1E4B1B689A4203D9BB69E7
:100B6000DA6A1B4B1A60BB69DA6A131C9B009B187C
:100B70009B00184A9A18BB690433101C191C01F019
:100B80008FFF0123FB6102F0EDFE02E001235B42D7
:100B9000FB61FB69012B0BD10B4B1B68002B07D0B2
:100BA000084B1B68DA6A3B6B9A4201D202F0BCFE2A
:100BB000FB69181CBD4609B090BDC046FFFFFF3F52
:100BC00028010020540000203401002048010020AA
:100BD000300100205800002080B586B000AF78605A
:100BE000396000237B617B68002B01D172B6FEE780
:100BF0003B68002B01D172B6FEE700F0A9F8204B4C
:100C00001B683B617B681A683B68D318FB607B6894
:100C10001A683B699A420BD97B681A68FB689A424A
:100C200011D9FA683B699A420DD901237B610AE028
:100C30007B681A68FB689A4203D8FA683B699A4253
:100C400001D901237B617B68FA681A607B69002BFC
:100C500009D00C4B1B680433181C01F079FFFB68AA
:100C6000181C00F009FC00F07FF8031CBB60BB6897
:100C7000002B01D102F058FEBD4606B080BDC04633
:100C80002C0100205400002080B584B000AF7860B3
:100C90000023FB607B68002B14D000F059F80D4B4B
:100CA0001A687B68D318BB600B4B1B680433181C95
:100CB00001F04EFFBB68181C00F0DEFB00F054F89A
:100CC000031CFB60FB68002B01D102F02DFEBD462A
:100CD00004B080BD2C0100205400002080B586B0F7
:100CE00004AF174A174B0021009100210191002108
:100CF000029100210391101C191C3C220023FFF7D4
:100D0000B1FE031C7B607B68012B03D1FFF714FC51
:100D1000031C7B607B68012B09D172B60A4B012250
:100D20001A600A4B00221A6002F0DCFD04E07B68C6
:100D3000002B01D172B6FEE7BD4602B080BDC046B1
:100D4000451300086C440008340100202C010020E9
:100D500080B500AF034B1B685A1C024B1A60BD469E
:100D600080BDC0463801002080B582B000AF0023AE
:100D70007B60374B1B68002B01D172B6FEE702F097
:100D8000E1FD334B1B685A1E314B1A60304B1B6818
:100D9000002B56D12F4B1B68002B52D02FE02E4B2F
:100DA000DB68DB683B603B681833181C01F0D0FE41
:100DB0003B680433181C01F0CBFE3B68DA6A274B12
:100DC0001B689A4203D93B68DA6A244B1A603B6875
:100DD000DA6A131C9B009B189B00214A9A183B68F7
:100DE0000433101C191C01F05BFE3B68DA6A1D4BD2
:100DF0001B68DB6A9A4202D31B4B01221A60164B16
:100E00001B68002BCBD1194B1B68002B11D00CE0B9
:100E100000F040F8031C002B02D0134B01221A6093
:100E2000124B1B685A1E114B1A60104B1B68002B8B
:100E3000EED10D4B1B68012B03D101237B6002F027
:100E400073FD02F08FFD7B68181CBD4602B080BDAB
:100E5000380100202801002000010020300100207E
:100E60005800002054000020400100203C010020D8
:100E700080B582B000AF02F065FD054B1B687B605A
:100E800002F070FD7B68181CBD4602B080BDC046F4
:100E90002C01002080B586B000AF00237B61584B49
:100EA0001B68002B00D09BE0564B1B685A1C554B0F
:100EB0001A60544B1B683B613B69002B2DD1524B90
:100EC0001B681B68002B01D072B6FEE74E4B1B68F7
:100ED000FB604E4B1A684C4B1A604C4BFA681A6018
:100EE0004B4B1B685A1C4A4B1A60474B1B681B68CC
:100EF000002B01D1012300E00023002B04D0454B3F
:100F0000012252421A6008E03F4B1B68DB68DB6835
:100F1000BB60BB685A683F4B1A603E4B1B683A691E
:100F20009A424FD3384B1B681B68002B01D1012319
:100F300000E00023002B04D0364B012252421A60FD
:100F400040E0314B1B68DB68DB68BB60BB685B68FB
:100F50007B603A697B689A4203D22E4B7A681A60AA
:100F600030E0BB680433181C01F0F2FDBB689B6ADB
:100F7000002B04D0BB681833181C01F0E9FDBB68D6
:100F8000DA6A254B1B689A4203D9BB68DA6A224B9E
:100F90001A60BB68DA6A131C9B009B189B001F4AEF
:100FA0009A18BB680433101C191C01F079FDBB684A
:100FB000DA6A1B4B1B68DB6A9A4202D301237B610E
:100FC000B0E7AFE7164B1B68DA6A1449131C9B00A5
:100FD0009B189B005B58012B07D901237B6104E020
:100FE000104B1B685A1C0F4B1A600F4B1B68002BD1
:100FF00001D001237B617B69181CBD4606B080BD12
:10100000380100202C010020F8000020FC00002006
:101010004401002010000020300100205800002072
:10102000540000203C0100204001002080B582B027
:1010300000AF2A4B1B68002B03D0294B01221A60FA
:1010400048E0274B00221A60264B1B681A68254B84
:101050001B681B6B9A4209D8224B1A68214B1B68EC
:101060003433101C191CFFF7F1F90BE00AE01E4B9A
:101070001B68002B01D172B6FEE71B4B1B685A1E82
:10108000194B1A60184B1A681849131C9B009B18BF
:101090009B005B58002BEAD0134B1A68131C9B0073
:1010A0009B189B00114A9B187B607B685B685A68A1
:1010B0007B685A607B685A687B6808339A4204D11F
:1010C0007B685B685A687B685A607B685B68DA6833
:1010D000044B1A60BD4602B080BDC04638010020F6
:1010E0004001002054000020300100205800002062
:1010F00080B584B000AF786039607B68002B01D187
:1011000072B6FEE7124B1B6818337A68101C191C64
:1011100001F0E8FC0E4B1B680433181C01F018FDAD
:101120003B68013308D10A4B1B680433094A101C81
:10113000191C01F0B5FC08E0074B1A683B68D3188E
:10114000FB60FB68181C00F097F9BD4604B080BD39
:1011500054000020140100202C01002080B584B030
:1011600000AF786039607B68002B01D172B6FEE772
:101170000C4B1B6818337A68101C191C01F090FC8A
:10118000084B1B680433181C01F0E2FC064B1A687C
:101190003B68D318FB60FB68181C00F06DF9BD4676
:1011A00004B080BD540000202C01002080B584B024
:1011B00000AF78607B68DB68DB68BB60BB68002BD6
:1011C00001D172B6FEE7BB681833181C01F0C0FCF1
:1011D0001E4B1B68002B1DD1BB680433181C01F08B
:1011E000B7FCBB68DA6A1A4B1B689A4203D9BB6822
:1011F000DA6A174B1A60BB68DA6A131C9B009B18EB
:101200009B00144A9A18BB680433101C191C01F087
:1012100047FC06E0BB6818330F4A101C191C01F08C
:101220003FFCBB68DA6A0D4B1B68DB6A9A4205D348
:101230000123FB600A4B01221A6001E00023FB60DE
:10124000FB68181CBD4604B080BDC04638010020B4
:101250003001002058000020000100205400002030
:101260004001002080B582B000AF78607B68002B21
:1012700001D172B6FEE7054B1A687B681A60044B11
:101280001A687B685A60BD4602B080BD44010020E8
:101290002C01002080B584B000AF786039607B6895
:1012A000002B01D172B6FEE73B68002B01D172B66C
:1012B000FEE702F047FB1C4B1B68BB603B681B68EA
:1012C000013302D10023FB6027E07B681A68174BCB
:1012D0001B689A4207D07B685A68BB689A4202D85A
:1012E0000123FB6019E07B685B68BA68D21A3B682F
:1012F0001B689A420FD23B681A687B685968BB68C2
:10130000CB1AD2183B681A607B68181CFFF7AAFF3B
:101310000023FB6001E00123FB6002F023FBFB687C
:10132000181CBD4604B080BD2C01002044010020E3
:1013300080B500AF024B01221A60BD4680BDC04699
:101340004001002080B582B000AF786000F090F8D6
:10135000034B1B68012B02D902F0E6FAF6E7F5E72A
:101360005800002080B586B000AFF860B9607A60A0
:101370003B6000237B6113E0BA687B69D3181A785D
:10138000F868302379694118CB181A71BA687B69FB
:10139000D3181B78002B00D105E07B6901337B61FA
:1013A0007B69092BE8D9FA683D230021D1547B6879
:1013B000052B01D905237B60FB687A68DA62FB683C
:1013C0007A689A64FB680433181C01F05FFBFB68C1
:1013D0001833181C01F05AFBFB68FA681A617B6825
:1013E0000622D21AFB689A61FB68FA685A62BD4607
:1013F00006B080BD80B582B000AF00237B600CE0FA
:101400007A68131C9B009B189B00124A9B18181C9F
:1014100001F01EFB7B6801337B607B68052BEFD9F5
:101420000D4B181C01F014FB0C4B181C01F010FBA9
:101430000B4B181C01F00CFB0A4B181C01F008FBAD
:10144000094B054A1A60094B044A1A60BD4602B0AE
:1014500080BDC04658000020D0000020E4000020DD
:101460000001002014010020F8000020FC000020F2
:1014700080B500AFBD4680BD80B582B000AF78605A
:10148000134B1B687A685A60124B1B687A689A4241
:1014900009D2114B1A680E4B1B680433101C191C1F
:1014A00001F020FB10E00D4B1A68094B1B68043358
:1014B000101C191C01F016FB094B1B687A689A4234
:1014C00002D2074B7A681A60BD4602B080BDC046A2
:1014D000540000202C010020FC000020F800002017
:1014E0001000002080B584B000AF021C3960BB1D25
:1014F0001A804C2002F05CFD031CFB60FB68002B93
:1015000022D03B68002B07D1BB1D1B889B00181CF9
:1015100002F04EFD021C00E03A68FB681A63FB68AB
:101520001B6B002B06D1FB68181C02F0CDFD0023BD
:10153000FB6009E0FB681A6BBB1D1B889B00101C3D
:10154000A5211A1C02F0B0FEFB68181CBD4604B0B1
:1015500080BDC04680B582B000AF044B1B687B6085
:101560007B68181CBD4602B080BDC04654000020F8
:1015700080B582B000AF0A4B1B68002B02D100235C
:101580007B6008E0074B1B68002B02D101237B60C6
:1015900001E002237B607B68181CBD4602B080BD61
:1015A000340100203801002080B584B000AF78609D
:1015B0007B68FB607B68002B46D0FB68DA6A244BB3
:1015C0001B68DB6A9A423FD2214B1B68DB6A06220A
:1015D000D21AFB689A61FB685969FB68DA6A131CC6
:1015E0009B009B189B001B4A9B18994201D1012329
:1015F00000E00023002B22D0FB680433181C01F00C
:10160000A7FA134B1B68DA6AFB68DA62FB68DA6ACE
:10161000114B1B689A4203D9FB68DA6A0E4B1A60B9
:10162000FB68DA6A131C9B009B189B00094A9A18F6
:10163000FB680433101C191C01F032FA04E0044B5F
:101640001B68DA6AFB68DA62BD4604B080BDC0463A
:1016500054000020580000203001002080B584B0E4
:1016600000AF78607B68FB607B68002B2CD0FB6848
:10167000DA6AFB689B6C9A4226D0FB680433181C1C
:1016800001F066FAFB689A6CFB68DA62FB68DB6A59
:101690000622D21AFB689A61FB68DA6A0C4B1B6857
:1016A0009A4203D9FB68DA6A094B1A60FB68DA6A66
:1016B000131C9B009B189B00064A9A18FB68043376
:1016C000101C191C01F0ECF9BD4604B080BDC046E9
:1016D000300100205800002080B582B000AF021C0D
:1016E000FB1D1A70064BFA1D1278111C1F220A40AE
:1016F0000121081C9040021C1A60BD4602B080BD4A
:1017000000E100E0B0B582B000AF021C3960FB1D03
:101710001A70FB1D1B787F2B32D93049FB1D1B78BB
:101720001A1C0F231340083B98082C4AFB1D1B78FA
:101730001C1C0F232340083B9B0806339B00D31837
:101740005B68FA1D1278141C03222240D200FF2489
:10175000251C95402A1CD2431A403B689C01FF235C
:101760001C40FB1D1B781D1C03232B40DB00251C8C
:101770009D402B1C1A43831D9B00CB185A6029E007
:10178000174BFA1D127852B292081549F81D0078CD
:1017900040B28008C03080004158F81D0078041C19
:1017A00003202040C000FF24251C8540281CC04386
:1017B000084039688C01FF210C40F91D09780D1C87
:1017C00003212940C900251C8D40291C0143C0323A
:1017D0009200D150BD4602B0B0BDC04600ED00E061
:1017E00000E100E080B500AF044B044A928892B259
:1017F00080210A4392B29A80BD4680BD00380040E5
:1018000080B500AF044B044A928892B280218A438B
:1018100092B29A80BD4680BD0038004080B500AFCE
:10182000044B044A928892B240210A4392B29A80B1
:10183000BD4680BD0038004080B500AF024B80221D
:1018400052019A61BD4680BD0004004880B500AFDA
:10185000024B802252011A85BD4680BD000400481B
:1018600080B500AF024B40229A61BD4680BDC046A4
:101870000008004880B500AF024B40221A85BD46E3
:1018800080BDC0460008004890B589B002AF494805
:101890004849494A494B4A4C009402F025F9031C37
:1018A00001225340DBB2002B00D080E080231B03D9
:1018B000181C0121FEF7ECFC8023DB02181C01211F
:1018C000FEF7E6FC8023DB01181C0121FEF71CFD5E
:1018D0003C4B3C4A1268A82109060A431A60394B5E
:1018E000384A1268802149040A431A60354B354A48
:1018F000D268802149040A43DA60334B324A1268C5
:10190000802149010A431A602F4B2F4AD268802157
:1019100049010A43DA603B1D00221A803B1D8222E6
:1019200052005A803B1DE022D2009A803B1D0022CB
:10193000DA813B1D0022DA803B1D00221A813B1D0B
:10194000802292005A813B1D08229A811F4A3B1D2A
:10195000101C191C00F0EEFA1C4B181C002100F0A2
:10196000B3FB1A4B181C012100F066FB1A2004215E
:10197000FFF7C8FE1A20FFF7AFFE02202221002247
:1019800001F0EEFA021C124B1A60114B1B68002B7F
:1019900000D1FEE702202221002201F0E1FA021C20
:1019A0000C4B1A600B4B1B68002B00D1FEE7BD46A9
:1019B00007B090BDD9190008611800087518000813
:1019C000751B00080004004800080048003800406B
:1019D000B8190020C019002080B58CB000AF786025
:1019E000FFF72AFF7B681A783B1C0C331A707B6860
:1019F0005A1C3B1C0C331B78391C0C310131081C60
:101A0000111C1A1C02F00EFC094B1A683B1C0C330B
:101A1000101C191C0022002301F0EAFAFFF716FF40
:101A2000FFF7FCFEFFF7DEFEBD460CB080BDC046F2
:101A3000B819002098B500AF2C4B1A682C4B101C1D
:101A4000191C002201F0E4FC2A4B181C602100F054
:101A50005DFB031C012B25D1274B1B785A1CD1B2EF
:101A6000254A11701C1C234B181C00F01BFB031C87
:101A70001A1C224B1B195A701D4B1A781E4B1B78CF
:101A80009A420FD81C4B1A781C4B1A701C4B1A68C0
:101A90001A4B101C191C0022002301F06BFB164B83
:101AA00000221A70134B181C712100F02FFB031C2D
:101AB000012B18D1134B1B785A1CD1B2114A11704B
:101AC0000B4AD3185B780B4A101C191C00F0D4FA8F
:101AD000074B1A780B4B1B789A4204D8FFF790FEFD
:101AE000084B00221A70BD4698BDC046B8190020A8
:101AF0004C190020003800404C01002070190020D3
:101B0000C01900204D01002080B58CB000AF786076
:101B1000FFF7BAFEC046084B19683A1C0C32012385
:101B20005B42081C111C1A1C002301F0A1FB031CC2
:101B3000012BF0D1C046EDE7C019002080B588B078
:101B400004AF7860094A0A4B79680091391C0C315E
:101B500001910021029100210391101C191CC8223F
:101B60000023FEF77FFFBD4604B080BD091B0008BF
:101B7000BC44000880B500AF80231B03181C012162
:101B8000FEF786FB01200121FEF7A0FB124B124A53
:101B90001168124A0A401A600F4B0F4AD26880211E
:101BA000C9010A43DA600220072102F0B9F90C4B9F
:101BB0000B4A126880210A431A60094B084AD2680E
:101BC00080210A43DA6007200421FFF79BFD0720EC
:101BD000FFF782FDBD4680BD00080048FF3FFFFFC4
:101BE0000004014080B500AF064B5A6980231340C2
:101BF00005D0044B034A526980210A435A61BD460D
:101C000080BDC0460004014080B586B000AF80238F
:101C1000DB02181C0121FEF73BFB264B254A12680C
:101C2000A02109020A431A60224BA022D201DA60E5
:101C30008023DB01181C0121FEF748FB3B1C962288
:101C4000D2011A603B1C00225A603B1C00229A60A1
:101C50003B1C0022DA603B1C00225A613B1C0C2218
:101C60001A61154A3B1C101C191C00F099FF124BFD
:101C7000181C012101F044F81B200721FFF742FD49
:101C80001B20FFF729FD03202221002201F068F923
:101C9000021C0A4B1A60094B1B68002B00D1FEE79F
:101CA000054A074B101C191C012201F067F8BD46BC
:101CB00006B080BD0004004800380140BC19002077
:101CC0000501050098B500AF374A384B101C191CA8
:101CD00001F096F8031C002B34D0354B1B785A1CAE
:101CE000D1B2334A11701C1C2F4B181C01F038F86C
:101CF000031CDAB22F4B1B195A702D4B1B78013B7A
:101D00002C4AD3185B78782B15D12B4B181C02F07A
:101D100025FB031CDBB2013BDAB2264B1A70274BC2
:101D20001A68244B101C191C0022002301F022FA0F
:101D30001F4B00221A701E4B1B78212B02D11C4B0B
:101D400000221A70184A1E4B101C191C01F058F87A
:101D5000031C002B25D0194B1A681A4B101C191C98
:101D6000002201F055FB184B1B785A1CD1B2164AC1
:101D70001170144AD3185B780B4A101C191C00F020
:101D8000DDFF104B1A78104B1B789A4209D1064A96
:101D90000B4B101C191C002200F0F0FF0A4B002214
:101DA0001A70BD4698BDC0460038014005010500C7
:101DB0004E0100202819002029190020BC190020FC
:101DC00007010700C41900204F01002090B597B00B
:101DD00000AF7860FFF718FF3B1C2C33424A13CA50
:101DE00013C313CA13C313CA13C312681A60C046BD
:101DF0003E4B19683A1C083201235B42081C111C37
:101E00001A1C002301F034FA031C012BF0D13B1CF7
:101E1000573300221A705FE03B1C57331A783B1C83
:101E20002C339200D2583B1C08330133101C191C70
:101E3000042202F09BFA031C002B46D13B1C5733B3
:101E40001B78092B40D89A00294BD3181B689F4652
:101E5000284A284B5B699BB2802189004B409BB28A
:101E6000938232E0234A234B5B699BB28021490075
:101E70004B409BB2938228E01E4A1E4B5B699BB28B
:101E8000802189004B409BB293821A4A194B5B69AF
:101E90009BB2802149004B409BB2938215E001F038
:101EA0004DFF12E001F05AFF0FE001F067FF0CE078
:101EB00001F072FF09E001F07DFF06E001F084FF10
:101EC00003E001F09BFF00E0C0463B1C57331A784B
:101ED0003B1C573301321A703B1C57331B78092BBC
:101EE0009AD9C04683E7C04614450008BC190020B3
:101EF0003C4500080008004880B588B004AF786011
:101F00000A490B4A96235B0078680090381C0C3015
:101F100001900020029000200390081C111C1A1C44
:101F20000023FEF79FFDBD4604B080BDCD1D000817
:101F30006445000880B584B000AF786039603B1C10
:101F40000E3300221A803B1C0E337A6812881A80E6
:101F50003B1C0E333A1C0E321188C12292010A40FA
:101F60001A803B681A883B68DB8913439AB23B6846
:101F7000DB8813439AB23B681B8913439AB23B68D0
:101F80005B8913439AB23B689B89134399B23B1C0C
:101F90000E333A1C0E3212880A431A807B683A1CB0
:101FA0000E3212881A803B1C0E337A6892881A808F
:101FB0003B1C0E333A1C0E3211881D4A0A401A800F
:101FC0003B6899883B1C0E333A1C0E3212880A4338
:101FD0001A807B683A1C0E3212889A803B681A8AF3
:101FE0007B681A823B1C0E337A6812881A803B1C6D
:101FF0000E333A1C0E32128804218A431A803B6841
:1020000059883B1C0E333A1C0E3212880A431A8040
:102010007B683A1C0E3212881A807B689B8B9AB2BE
:10202000044B13409AB27B689A83BD4604B080BDCE
:10203000FFF0FFFFFFF7FFFF80B582B000AF7860D1
:102040000A1CFB1C1A70FB1C1B78002B08D07B6839
:102050001B889BB2402213439AB27B681A8007E028
:102060007B681B889BB2402293439AB27B681A809C
:10207000BD4602B080BDC04680B584B000AF786078
:102080000A1CFB1C1A700023FB607B68FB60FB686A
:102090000C33FB60FB68FA1C12781A70BD4604B062
:1020A00080BDC04680B584B000AF78600023FB607F
:1020B0007B68FB60FB680C33FB60FB681B78DBB262
:1020C000181CBD4604B080BD80B582B000AF7860FA
:1020D0000A1CFB1C1A70FB1C1B78002B09D07B68A8
:1020E0001B889BB28022920113439AB27B681A80AC
:1020F00007E07B681B889AB2034B13409AB27B6857
:102100001A80BD4602B080BDFFDFFFFF80B584B0FE
:1021100000AF78600A1CFB1C1A703B1C0F330022B6
:102120001A703B1C0C3300221A803B1C0A3300221D
:102130001A803B1C083300221A80FB1C1A780F23DC
:10214000134001229A403B1C0C331A80FB1C1B7865
:102150001B09DAB23B1C0A331A803B1C0A331B886A
:1021600001229A403B1C0A331A807B689B889AB2F2
:102170003B1C0833391C0A3109880A401A807B68E5
:102180001B899BB23A1C0C32128813409BB2002B65
:1021900009D03B1C08331B88002B04D03B1C0F3399
:1021A00001221A7003E03B1C0F3300221A703B1C03
:1021B0000F331B78181CBD4604B080BD80B582B0BB
:1021C00000AF021CFB1D1A70064BFA1D1278111C81
:1021D0001F220A400121081C9040021C1A60BD46C3
:1021E00002B080BD00E100E080B582B000AF021C0B
:1021F000FB1D1A70074AFB1D1B78191C1F230B407F
:102200000121081C9840031C191C8023D150BD4695
:1022100002B080BD00E100E0B0B582B000AF021CAA
:102220003960FB1D1A70FB1D1B787F2B32D930499A
:10223000FB1D1B781A1C0F231340083B98082C4ADF
:10224000FB1D1B781C1C0F232340083B9B080633F7
:102250009B00D3185B68FA1D1278141C03222240DD
:10226000D200FF24251C95402A1CD2431A403B680B
:102270009C01FF231C40FB1D1B781D1C03232B40CE
:10228000DB00251C9D402B1C1A43831D9B00CB1893
:102290005A6029E0174BFA1D127852B2920815497C
:1022A000F81D007840B28008C03080004158F81D09
:1022B0000078041C03202040C000FF24251C85401A
:1022C000281CC043084039688C01FF210C40F91DCF
:1022D00009780D1C03212940C900251C8D40291CAB
:1022E0000143C0329200D150BD4602B0B0BDC046DD
:1022F00000ED00E000E100E080B500AF9023DB05D9
:102300009022D2051268A021C9030A431A609023C3
:10231000DB059022D205D268A021C9030A43DA6006
:10232000BD4680BD80B500AF9023DB058022D20082
:102330009A61BD4680BDC04680B500AF9023DB05E5
:102340008022D2049A61BD4680BDC04680B500AFF0
:102350009023DB05802212019A61BD4680BDC046F4
:1023600080B500AF9023DB05802212059A61BD463F
:1023700080BDC04680B500AF0B4A0B4B1B689BB2BB
:1023800001210B439BB21380074B00225A62074B7B
:1023900000221A8010200221FFF73EFF1020FFF7D5
:1023A0000DFFBD4680BDC046000400405001002026
:1023B00080B500AF064A064B1B689BB201218B43D8
:1023C0009BB213801020FFF70FFFBD4680BDC046B3
:1023D0000004004080B500AF02200121FDF794FF0A
:1023E000084B6422DA62074A44230021D152054B8C
:1023F00009221A85034B80221A80024B01229A81FE
:10240000BD4680BD0004004080B500AF0120002122
:10241000032200F0A5FD021C054B1A60044B1B684B
:10242000002B01D172B6FEE7FFF7D4FFBD4680BD99
:102430005401002080B500AF094B0F221A6005201F
:102440000121FFF7E9FE0520FFF7B8FE0620012174
:10245000FFF7E2FE0620FFF7B1FEBD4680BDC04695
:102460000004014080B500AF064B064A12680F21F8
:102470008A431A600520FFF7B7FE0620FFF7B4FE77
:10248000BD4680BD0004014080B500AF9023DB0550
:102490009022D2051268FF218A431A609023DB053F
:1024A000AA22DA609023DB059022D2051268AA21C5
:1024B000C9010A431A609023DB059022D205D26835
:1024C000AA21C9010A43DA609023DB05F0229A6150
:1024D000BD4680BD80B500AF9023DB059022D205BC
:1024E00011680F4A0A401A609023DB05AA221202E3
:1024F000DA609023DB059022D205126855210A4349
:102500001A609023DB059022D205D26855210A4338
:10251000DA609023DB050F229A61BD4680BDC0467C
:10252000FF00FFFF80B500AF032001F00FF9021C90
:102530002B4B1A602A4B1B68002B01D172B6FEE7A9
:1025400001200221002200F00BFD021C254B1A6025
:10255000244B1B68002B01D172B6FEE70120042139
:10256000002200F0FDFC021C1F4B1A601E4B1B6872
:10257000002B01D172B6FEE780239B02181C0121BB
:10258000FDF786FE01200121FDF7A0FEFFF7B4FE56
:10259000FFF77AFF0020032101F0C2FC134B134A1E
:1025A00012680F210A431A60104B104A92680F21DB
:1025B0000A439A60FFF728FF0A4B1A68084B1B680A
:1025C000101C191C01F0D4F8094B1A68044B1B6845
:1025D000101C191C01F0CCF8FFF72CFFBD4680BD84
:1025E000F0190020F8190020F4190020000401401F
:1025F0005401002080B500AF9023DB051B699BB21E
:102600001A1C1023134001D024231EE09023DB0565
:102610001B699BB21A1C2023134001D02D2314E008
:102620009023DB051B699BB21A1C4023134001D089
:102630003A230AE09023DB051B699BB21A1C802316
:10264000134001D0452300E06323181CBD4680BD24
:1026500080B582B000AFFFF705FFFFF7A9FEFFF7D7
:1026600089FE3A1D244B111C1A1C0223081C111C44
:102670001A1C01F0D7FDFFF72DFF204B5A690123EB
:10268000134009D01D4B1D4A526901210A435A616A
:102690003B1D00221A7011E0184B5A6902231340A7
:1026A00009D0164B154A526902210A435A613B1D53
:1026B00002221A7002E03B1D63221A70FFF79AFF94
:1026C000031C1A1C3B1D5A703B1D5B78632B0ED0FC
:1026D0003B1D1B78632B0AD0FFF738FE084B1A68A6
:1026E0003B1D101C191C0022002300F043FDFFF7C6
:1026F000CBFEBD4602B080BD70450008000401401D
:10270000F819002080B582B000AFFFF7ABFEFFF7ED
:102710004FFEFFF72FFE3A1D244B111C1A1C0223FB
:10272000081C111C1A1C01F07DFDFFF7D3FE204B85
:102730005A690423134009D01D4B1D4A52690421D4
:102740000A435A613B1D11221A7011E0184B5A6955
:102750000823134009D0164B154A526908210A4331
:102760005A613B1D1D221A7002E03B1D63221A7044
:10277000FFF740FF031C1A1C3B1D5A703B1D5B7882
:10278000632B0ED03B1D1B78632B0AD0FFF7DEFDB9
:10279000084B1A683B1D101C191C0022002300F076
:1027A000E9FCFFF771FEBD4602B080BD7045000830
:1027B00000040140F819002080B500AF174B1B69D9
:1027C0009BB21A1C0123134026D0144A134B1B69D9
:1027D0009BB201218B439BB21382114B1B889BB28E
:1027E00001339AB20E4B1A800D4B1B889BB2642B9F
:1027F00002D1FFF71FFE0FE0094B1B889AB2094B6D
:102800009A4209D1084B1B68181C002100220023A2
:1028100000F0B0FCFFF7CCFDBD4680BD00040040D9
:1028200050010020881300005401002080B586B0BC
:1028300000AFFB1D1870BB1D19703B1D1A80FB1DDE
:102840001B78002B02D0012B05D02AE0164B7B61B0
:10285000164B3B6104E0164B7B61164B3B61C04657
:102860003B1C0F3300221A7014E07B6998473B1D14
:102870001B88181CFEF708FA3B6998473B1D1B880C
:10288000181CFEF701FA3B1C0F331A783B1C0F3360
:1028900001321A703A1C0F32BB1D12781B789A4213
:1028A000E3D3BD4606B080BD4D2300086123000878
:1028B0002523000839230008B0B58EB000AFF861B9
:1028C000FFF730FE3B1C373304221A703B1C3733B2
:1028D0001B78013B3B633B1C37331B78DBB23B610E
:1028E00000237B613A69530F7A69D200FA60FA6873
:1028F0001A43FA603B69DB003B1C37331B78DBB2C1
:102900001C1C00231D1C630FEA007A607A681A43BE
:102910007A60E3003B1C37331B780733DB08DB00AE
:102920006A46D21A95466B460033FB62FEF7A0FA60
:10293000031CBB62334B1B68181C0A2100F03AFFD2
:10294000021C314B1A60304B1A68304B1B689A429C
:1029500020D12E4B1B68002B52D02C4B1B68181C0F
:1029600000210022002300F083FC031C002B47D031
:10297000274B00221A70002003216422FFF756FF24
:10298000FA6A3B1C37331B78101C00211A1C01F01B
:102990008BFCCFE71C4B1A681E4B1B689A422FD149
:1029A0001C4B1A683B1C2433101C191C00220023EA
:1029B00000F05EFC164B1B783A1C243211783A1C4E
:1029C000243252788A18D1B2FA6AD154FFF7C8FC7F
:1029D0000F4B1B780133DAB20D4B1A700C4B1B787E
:1029E0003A1C373212789A420AD1094B00221A70E7
:1029F00096235B00012003211A1CFFF717FF99E7BC
:102A000098E7C046F0190020E81900205401002082
:102A100058010020F819002080B586B004AF786016
:102A2000094A0A4B79680091002101910021029125
:102A300000210391101C191CA0220023FEF712F89C
:102A4000BD4602B080BDC046B928000874450008E4
:102A500080B582B000AF78607B681A1C08327B6852
:102A60005A607B68012252429A607B681A1C0832C5
:102A70007B68DA607B681A1C08327B681A617B68A5
:102A800000221A60BD4602B080BDC04680B582B04B
:102A900000AF78607B6800221A61BD4602B080BD3D
:102AA00080B584B000AF786039607B685B68FB609C
:102AB0003B68FA685A60FB689A683B689A60FB68F2
:102AC0009B683A685A60FB683A689A603B687A6823
:102AD0001A617B681B685A1C7B681A60BD4604B08B
:102AE00080BDC04680B584B000AF786039603B6877
:102AF0001B68BB60BB68013303D17B681B69FB604B
:102B00000CE07B680833FB6002E0FB685B68FB60FD
:102B1000FB685B681A68BB689A42F6D9FB685A681A
:102B20003B685A603B685B683A689A603B68FA6841
:102B30009A60FB683A685A603B687A681A617B68F9
:102B40001B685A1C7B681A60BD4604B080BDC04635
:102B500080B584B000AF78607B685B687A68926803
:102B60009A607B689B687A6852685A607B681B69C8
:102B7000FB60FB685A687B689A4203D17B689A685D
:102B8000FB685A607B6800221A61FB681B685A1E4A
:102B9000FB681A60FB681B68181CBD4604B080BD4A
:102BA00080B58CB000AF786039600023FB620023F1
:102BB000BB6200237B627B681B680122191C914366
:102BC0000A1C7B681A607B685B687B627A6A474B89
:102BD00013407B623B689B687A6A13437B627B6825
:102BE0007A6A5A607B681B687B627A6A404B134042
:102BF0007B623B685A683B68DB681A433B681B6929
:102C000013437A6A13437B627B687A6A1A607B6833
:102C10009B687B627A6A374B13407B623B685B69D7
:102C20007A6A13437B627B687A6A9A603B1C08333A
:102C3000181CFDF747FA7A682F4B9A4204D13B1CC7
:102C400008339B69BB6203E03B1C08339B68BB6293
:102C50007B681A6880231B02134014D0BB6A5A0099
:102C60003B681B68101C191C01F08CFA031CFB62EA
:102C7000BB6A5A003B681B68101C191C01F0C6FA9D
:102C80000B1C7B6210E03B681B68B86A191C01F0E2
:102C900079FA031CFB623B681B68BA6A101C191C9A
:102CA00001F0B4FA0B1C7B623B681B685A087B6A14
:102CB0009A4202D8FB6A0133FB627B681A68802360
:102CC0001B0213400AD0FA6A0F2313405B087B6291
:102CD000FA6A0A4B1A407B6A1343FB62FB6A9AB298
:102CE0007B689A81BD460CB080BDC046FFCFFFFF18
:102CF000F3E9FFFFFFFCFFFF00380140F0FF000099
:102D000080B582B000AF78600A1CFB1C1A70FB1CF7
:102D10001B78002B06D07B681B6801221A437B6856
:102D20001A6007E07B681B680122191C91430A1C8A
:102D30007B681A60BD4602B080BDC04680B582B0D7
:102D400000AF78600A1CBB1C1A80BB1C1B88DB050B
:102D5000DB0D9AB27B681A85BD4602B080BDC046C5
:102D600080B582B000AF78607B685B6A9BB2DB05A0
:102D7000DB0D9BB2181CBD4602B080BD80B588B08B
:102D800000AFF860B960FB1D1A700023BB6100231F
:102D90007B6100233B610023FB61FB68FB61BB6837
:102DA0009BB21B0A9BB2BB61BA68FF2313407B61D5
:102DB0007B690122111C99400B1C3B61BB69022BF2
:102DC00003D1FB690433FB6105E0BB69032B02D12E
:102DD000FB690833FB61FB1D1B78002B06D0FB69E8
:102DE000FA6911683A690A431A6006E0FB69FA69F0
:102DF00012683969C9430A401A60BD4608B080BDEF
:102E000080B586B000AF786039600023FB60002396
:102E10007B610023BB603B1C133300221A703B68AC
:102E20009BB21B0A9BB2BB603A68FF2313407B61D5
:102E30007B690122111C99400B1C7B61BB68012B33
:102E400005D17B681A687B6913407B610DE0BB6824
:102E5000022B05D17B685A687B6913407B6104E0D3
:102E60007B689A687B6913407B613B681B0CFB6045
:102E7000FB680122111C99400B1CFB607B68DA691E
:102E8000FB681340FB607B69002B07D0FB68002BBD
:102E900004D03B1C133301221A7003E03B1C133394
:102EA00000221A703B1C13331B78181CBD4606B059
:102EB00080BDC04680B584B000AF786039607B6863
:102EC000FB60FB68002B01D172B6FEE700F03AFD13
:102ED000FB681A68FB68D96BFB681B6C4B43D21804
:102EE000FB685A60FB6800229A63FB681A68FB68FB
:102EF0009A60FB681A68FB68DB6B591EFB681B6CE9
:102F00004B43D218FB68DA60FB68012252425A64D4
:102F1000FB68012252429A643B68002B0ED1FB6889
:102F20001B69002B14D0FB681033181CFEF73EF908
:102F3000031C012B0CD100F0F7FC09E0FB681033F7
:102F4000181CFFF785FDFB682433181CFFF780FD74
:102F500000F008FD0123181CBD4604B080BDC0462A
:102F600080B588B000AFF860B960FB1D1A7000230F
:102F7000FB61FB68002B31D0542001F019F8031CD1
:102F8000BB61BB69002B29D0FB68BA68534301338E
:102F90007B617B69181C01F00BF8021CBB691A608D
:102FA000BB691B68002B15D0BB69FA68DA63BB6983
:102FB000BA681A64BB69181C0121FFF77BFFBA6964
:102FC000F91D4D230978D154BB6900221A65BB69EC
:102FD000FB6103E0BB69181C01F076F8FB69002B6C
:102FE00001D172B6FEE7FB69181CBD4608B080BD72
:102FF00080B588B000AFF860B9607A603B600023AC
:10300000FB61FB68BB61BB69002B01D172B6FEE7B7
:10301000BB68002B03D1BB691B6C002B01D10123C2
:1030200000E00023002B01D172B6FEE73B68022BC3
:1030300003D1BB69DB6B012B01D1012300E000232D
:10304000002B01D172B6FEE700F07CFCBB699A6BE5
:10305000BB69DB6B9A4202D33B68022B29D1B96969
:10306000BA683B68081C111C1A1C00F029FABB69DD
:103070001B6D002B0BD0BA693B68101C191C00F0AB
:10308000AFFB031C012B10D100F04EFC0DE0BB691F
:103090005B6A002B09D0BB692433181CFEF786F845
:1030A000031C012B01D100F03FFC00F05BFC01236D
:1030B0005BE07B68002B03D100F054FC002354E05C
:1030C000FB69002B06D13B1C1033181CFEF7CAF815
:1030D0000123FB6100F046FCFDF73AFE00F032FCF4
:1030E000BB695B6C013302D1BB6900225A64BB69C6
:1030F0009B6C013302D1BB6900229A6400F032FC60
:103100003A1C10323B1D101C191CFEF7C3F8031C9F
:10311000002B21D1BB69181C00F0D4FA031C002B32
:1031200013D0BB691A1C10327B68101C191CFDF7E8
:10313000DFFFBB69181C00F055FAFDF715FE031CF4
:10314000002B11D100F0F0FB0EE0BB69181C00F061
:1031500049FAFDF709FE77E7BB69181C00F042FA4F
:10316000FDF702FE002300E06EE7181CBD4608B024
:1031700080BDC04680B588B000AFF860B9607A60A5
:103180003B60FB68BB61BB69002B01D172B6FEE7F7
:10319000BB68002B03D1BB691B6C002B01D1012341
:1031A00000E00023002B01D172B6FEE73B68022B42
:1031B00003D1BB69DB6B012B01D1012300E00023AC
:1031C000002B01D172B6FEE700F0DCFB031C7B6133
:1031D000BB699A6BBB69DB6B9A4202D33B68022BDB
:1031E0003AD1B969BA683B68081C111C1A1C00F076
:1031F00067F9BB699B6C013326D1BB691B6D002B42
:103200000FD0BA693B68101C191C00F0E9FA031CC6
:10321000012B1ED17B68002B1BD07B6801221A601A
:1032200017E0BB695B6A002B13D0BB692433181C01
:10323000FDF7BCFF031C002B0BD07B68002B08D0D4
:103240007B6801221A6004E0BB699B6C5A1CBB6955
:103250009A640123FB6101E00023FB617B69181C78
:1032600000F096FBFB69181CBD4608B080BDC04647
:1032700080B58AB000AFF860B9607A603B60002327
:103280007B62FB683B623B6A002B01D172B6FEE7B2
:10329000BB68002B03D13B6A1B6C002B01D10123BF
:1032A00000E00023002B01D172B6FEE700F04AFBDC
:1032B0003B6A9B6B002B3DD03B6ADB68FB613A6A43
:1032C000BB68101C191C00F065F93B68002B1CD171
:1032D0003B6A9B6B5A1E3B6A9A633B6A1B68002BD6
:1032E00004D1FEF737F9021C3B6A5A603B6A1B693E
:1032F000002B1BD03B6A1033181CFDF757FF031C33
:10330000012B13D100F010FB10E03B6AFA69DA6080
:103310003B6A5B6A002B09D03B6A2433181CFDF71B
:1033200045FF031C002B01D000F0FEFA00F01AFB51
:10333000012368E07B68002B03D100F013FB00231E
:1033400061E07B6A002B06D13B1C1433181CFDF78F
:1033500089FF01237B6200F005FBFDF7F9FC00F01B
:10336000F1FA3B6A5B6C013302D13B6A00225A647A
:103370003B6A9B6C013302D13B6A00229A6400F0E5
:10338000F1FA3A1C14323B1D101C191CFDF782FF88
:10339000031C002B2ED13B6A181C00F07DF9031C86
:1033A000002B20D03B6A1B68002B08D100F0CAFA22
:1033B0003B6A5B68181CFEF7F7F800F0D3FA3B6A2B
:1033C0001A1C24327B68101C191CFDF791FE3B6A05
:1033D000181C00F007F9FDF7C7FC031C002B11D1E6
:1033E00000F0A2FA0EE03B6A181C00F0FBF8FDF7B3
:1033F000BBFC5BE73B6A181C00F0F4F8FDF7B4FC7B
:10340000002300E052E7181CBD460AB080BDC0464C
:1034100080B588B000AFF860B9607A60FB68BB61C6
:10342000BB69002B01D172B6FEE7BB68002B03D14C
:10343000BB691B6C002B01D1012300E00023002B92
:1034400001D172B6FEE700F09DFA031C7B61BB69F7
:103450009B6B002B29D0BA69BB68101C191C00F0AB
:1034600099F8BB699B6B5A1EBB699A63BB695B6C1D
:10347000013312D1BB691B69002B13D0BB69103318
:10348000181CFDF793FE031C002B0BD07B68002B50
:1034900008D07B6801221A6004E0BB695B6C5A1C8F
:1034A000BB695A640123FB6101E00023FB617B6976
:1034B000181C00F06DFAFB69181CBD4608B080BDF1
:1034C00080B584B000AFF860B9607A60FB681B6CAF
:1034D000002B0CD1FB681B68002B53D1FB685B6889
:1034E000181CFEF7BBF8FB6800225A604AE07B68B4
:1034F000002B1BD1FB689968FB681B6CBA68081C21
:10350000111C1A1C00F08EFEFB689A68FB681B6C8D
:10351000D218FB689A60FB689A68FB685B689A42FD
:1035200030D3FB681A68FB689A602BE0FB68D968A7
:10353000FB681B6CBA68081C111C1A1C00F072FE98
:10354000FB68DA68FB681B6C5B42D218FB68DA60C8
:10355000FB68DA68FB681B689A4207D2FB685A6806
:10356000FB681B6C5B42D218FB68DA607B68022B3D
:1035700008D1FB689B6B002B04D0FB689B6B5A1E29
:10358000FB689A63FB689B6B5A1CFB689A63BD4699
:1035900004B080BD80B582B000AF786039607B68D0
:1035A0001B68002B1AD07B68DA687B681B6CD2180A
:1035B0007B68DA607B68DA687B685B689A4203D371
:1035C0007B681A687B68DA607B68DA687B681B6CEA
:1035D0003968081C111C1A1C00F024FEBD4602B0FC
:1035E00080BDC04680B582B000AF786000F0AAF917
:1035F00023E07B681B6D002B0AD07B68181C002120
:1036000000F0EEF8031C012B12D1FDF791FE0FE044
:103610007B685B6A002B0AD07B682433181CFDF79B
:10362000C5FD031C002B03D0FDF782FE00E008E07F
:103630007B689B6C5A1E7B689A647B689B6C002B32
:10364000D7DC7B68012252429A6400F08BF900F0CB
:1036500079F914E07B681B69002B0FD07B6810336D
:10366000181CFDF7A3FD031C002B01D0FDF760FE25
:103670007B685B6C5A1E7B685A6400E003E07B68E1
:103680005B6C002BE6DC7B68012252425A6400F03E
:1036900069F9BD4602B080BD80B584B000AF7860E6
:1036A00000F050F97B689B6B002B02D10123FB607B
:1036B00001E00023FB6000F055F9FB68181CBD46D3
:1036C00004B080BD80B584B000AF786000F03AF9F6
:1036D0007B689A6B7B68DB6B9A4202D10123FB60AB
:1036E00001E00023FB6000F03DF9FB68181CBD46BB
:1036F00004B080BD80B584B000AF786039607B686D
:10370000FB6000F01FF9FB685B6C013302D1FB68C2
:1037100000225A64FB689B6C013302D1FB680022D3
:103720009A6400F01FF9FB689B6B002B07D1FB68C4
:103730001A1C24323B68101C191CFDF70FFDFB6896
:10374000181CFFF74FFFBD4604B080BD80B584B0A4
:1037500000AF78607B68181C04210022FFF700FC92
:10376000031CFB60FB68181CBD4604B080BDC0464E
:1037700080B584B000AF786039607B681B6D002B2A
:1037800002D00023FB600FE07B689B6B002B02D014
:103790000023FB6008E000F0D5F87B683A681A6502
:1037A00000F0E0F80123FB60FB68181CBD4604B084
:1037B00080BDC04680B584B000AF7860396000231A
:1037C000FB6079683A1C0C323B68081C111C1A1CFF
:1037D0000023FFF74DFDFB68181CBD4604B080BDFB
:1037E00080B584B000AF786039607B681B6DBB60CA
:1037F0000023FB60BB68002B01D172B6FEE7BB68FB
:103800009A6BBB68DB6B9A4201D372B6FEE7BB686A
:103810009A6BBB68DB6B9A4215D2B9683A1D3B685C
:10382000081C111C1A1CFFF74BFEBB685B6A002BBF
:1038300009D0BB682433181CFDF7B8FC031C002B0F
:1038400001D00123FB60FB68181CBD4604B080BD9D
:1038500080B584B000AFF860B9607A60FB68043B63
:10386000FB60FB68802252041A60FB68043BFB602B
:10387000BA68FB681A60FB68043BFB60084AFB6897
:103880001A60FB68143BFB607A68FB681A60FB688F
:10389000203BFB60FB68181CBD4604B080BDC046E1
:1038A000A538000880B500AF034B1B68013301D079
:1038B00072B6FEE772B6FEE71400002080B500AFD6
:1038C000BD4680BD064A13681868203080F3098819
:1038D000022080F314883FBCAE4662B600BDC046ED
:1038E0005400002080B500AF0D4B0D4A1268FF2137
:1038F00009040A431A600A4B094A1268FF210906A3
:103900000A431A6000F084F8064B00221A60FFF7A1
:10391000D9FFFFF7C7FF0023181CBD4680BDC04676
:1039200020ED00E01400002080B500AF044B8022A1
:1039300052051A60BFF34F8FBFF36F8FBD4680BD36
:1039400004ED00E080B500AF72B6054B1B685A1C51
:10395000034B1A60BFF34F8FBFF36F8FBD4680BD1F
:103960001400002080B500AF054B1B685A1E044BA5
:103970001A60034B1B68002B00D162B6BD4680BDA8
:1039800014000020EFF3108072B670470023181C5B
:1039900080F310887047C046EFF309800E4B1A6819
:1039A00020381060F0C044464D4656465F46F0C091
:1039B00008B572B6FDF73AFB62B60CBC1168086830
:1039C0001030F0C8A046A946B246BB4680F309882D
:1039D0002038F0C81847C0465400002080B582B097
:1039E00000AFFFF7CFFF031C7B60FDF753FA031C0A
:1039F000002B03D0054B802252051A607B68181CEF
:103A0000FFF7C6FFBD4602B080BDC04604ED00E032
:103A100080B500AF034B044A1A60044B07221A60BA
:103A2000BD4680BD14E000E0E703000010E000E0C8
:103A300080B500AF1B4B1B4A126801210A431A6074
:103A4000184B184A5168184A0A405A60154B154AD3
:103A50001168164A0A401A60124B124A1168144A39
:103A60000A401A600F4B0F4A5168124A0A405A60C6
:103A70000C4B0C4AD26A0F218A43DA62094B094A7D
:103A8000116B0D4A0A401A63064B064A526B01211C
:103A90008A435A63034B00229A6000F00FF8BD4638
:103AA00080BDC046001002400CB8FFF8FFFFF6FED4
:103AB000FFFFFBFFFFFFC0FFACFEFFFF80B500AFC5
:103AC000074B10221A60074B064A5268A0210A438E
:103AD0005A60044B034A52685A60BD4680BDC046D6
:103AE000002002400010024080B584B000AFF860B2
:103AF000B9607A603B60134BBA681A60124BFA687F
:103B00001A60124B7A681A60114B3A681A60114BAE
:103B1000BA691A600B4B1B68002B0DD00A4B1B684F
:103B2000002B09D0094B1B68002B05D0084B1B68E4
:103B3000002B01D0012300E00023181CBD4604B077
:103B400080BDC0465C0100206001002064010020AF
:103B5000680100206C010020F0B58DB000AF7862E4
:103B60003962111C1A1C3B1C1F3319703B1C1E337D
:103B70001A706B461E1C3B6A02335A1EFA621A1CEC
:103B80003A6100227A6139694A0F7969C900F9609E
:103B9000F9681143F9603A69D2001A1C141C00221A
:103BA000151C620FE9007960796811437960E200C1
:103BB0000733DB08DB006946C91A8D466B460033C4
:103BC000BB623B1C1E331B78A82B00D1A7E00DDC89
:103BD000602B00D1A5E004DC002B18D0202B2CD0CA
:103BE000A4E0612B48D0A02B55D09FE0E22B00D160
:103BF00079E005DCB02B00D195E0E12B65D095E0B4
:103C0000E32B00D191E0FF2B00D17AE08EE03B6AFC
:103C1000DBB20133DAB2BB6A1A703A1C1E323B1CAB
:103C20001F3312781B781343DAB2BB6A5A70414BC8
:103C30001B68BA6A101C984778E03B6ADBB2013314
:103C4000DAB2BB6A1A703A1C1E323B1C1F33127860
:103C50001B781343DAB2BB6A5A70BB6A991C3B6A81
:103C60007A6A081C111C1A1C00F0DCFA324B1B6823
:103C7000BA6A101C984759E03B6ADAB2BB6A1A70FC
:103C8000BB6A3A1C1E3212785A702A4B1B68BA6AF9
:103C9000101C98474AE03B6ADBB20133DAB2BB6AD8
:103CA0001A70BB6A3A1C1E3212785A70BB6A991C91
:103CB0003B6A7A6A081C111C1A1C00F0B3FA1E4BEE
:103CC0001B68BA6A101C984730E0BB6A01221A7060
:103CD000BB6A3A1C1E3212785A70174B1B68BA6ABC
:103CE000101C984722E0BB6A01221A70BB6A3A1C7A
:103CF0001E3212785A70104B1B68BA6A101C984713
:103D000014E0BB6A01221A70BB6A3A1C1E32127898
:103D10005A70094B1B68BA6A101C984706E0C046E7
:103D200004E0C04602E0C04600E0C046B546BD46DD
:103D30000DB0F0BD600100205C01002080B582B0B4
:103D400000AFFB1D02221A70FB1D181C012100226E
:103D50002023FFF701FFBD4602B080BD80B582B0D1
:103D600000AFFB1D00221A70FB1D181C0121002250
:103D70002023FFF7F1FEBD4602B080BD80B500AF45
:103D8000044B1B68002B02D0024B1B689847BD46B2
:103D900080BDC0466401002080B500AF044B1B68A5
:103DA000002B02D0024B1B689847BD4680BDC04621
:103DB0006801002080B500AF002000210022FF2311
:103DC000FFF7CAFEBD4680BD80B500AF00200121CF
:103DD00007220023FFF7C0FEBD4680BD80B582B03C
:103DE00000AFFB1DFF221A70FB1D181C01210722CA
:103DF0002023FFF7B1FEBD4602B080BD80B500AF05
:103E00000020012100220023FFF7A6FEBD4680BD51
:103E100080B582B000AF78607B68181C0A21002250
:103E2000A023FFF799FEFFF7A9FFBD4602B080BDB2
:103E300080B500AF002001210022E123FFF78CFEB6
:103E4000BD4680BD80B500AF002001210022E223E5
:103E5000FFF782FEBD4680BD80B58AB000AF2F4B14
:103E60001B68002B02D02D4B1B689847FFF794FF6F
:103E70003B1C1A7802210A431A703B1C1A78102145
:103E80000A431A703B1C1A7840210A431A703B1CE3
:103E90001A7820210A431A703B1C1A7801218A43A0
:103EA0001A703B1C5A7801218A435A703B1C9A783D
:103EB00001210A439A703B1C5A797F218A432821A9
:103EC0000A435A713B1C5A7F3F218A430A210A4305
:103ED0005A773B1C181C012100222023FFF73CFECF
:103EE0003B1C0133181C012101222023FFF734FE63
:103EF0003B1C0233181C012102222023FFF72CFE59
:103F00003B1C1D33181C012111222023FFF724FE26
:103F1000FFF734FFBD460AB080BDC0466C010020EB
:103F2000B0B584B000AF0A1CFB1D011C1970BB1D8D
:103F30001A700023FB60BB1D1A78032313409B00FB
:103F40000F22111C99400B1CFB60184BBA1D1278F4
:103F50009208D2B21549B81D00788008C0B202306C
:103F600080004158F868C043014002329200D150AD
:103F70000E4BBA1D12789208D2B20C49B81D0078C7
:103F80008008C0B2023080004058F91D0C78B91D7D
:103F90000D78032129408900251C8D40291C0143EF
:103FA00002329200D150BD4604B0B0BD00000140C5
:103FB00080B588B000AF786000237B61FCF7C8FE55
:103FC0003C4B1B68002B04D100F0B6F8394B0122A2
:103FD0001A607B68002B0CD008237A68D3187B60AA
:103FE0007A680723134004D07B6807229343083381
:103FF0007B607B68002B56D07A682F4B9A4252D850
:104000002E4BBB612D4B1B68FB6104E0FB69BB6160
:10401000FB691B68FB61FB695A687B689A4203D2A3
:10402000FB691B68002BF1D1FA69254B9A423AD003
:10403000BB691A680823D3187B61FB691A68BB69DE
:104040001A60FB695A687B68D21A08235B009A429F
:1040500022D9FA697B68D318FB60FB695A687B68D0
:10406000D21AFB685A60FB697A685A60FB685B6821
:10407000BB60124B3B6102E03B691B683B613B69E3
:104080001B685A68BB689A42F6D33B691A68FB689A
:104090001A603B69FA681A600A4B1A68FB695B6828
:1040A000D21A084B1A60FCF75FFE7B69181CBD46EC
:1040B00008B080BDF018002067170000E01800204D
:1040C000E81800201800002080B586B000AF7860A6
:1040D0007B683B617B68002B27D008235B423A69F1
:1040E000D3183B613B69FB60FCF732FEFB685B6801
:1040F000BB600F4B7B6102E07B691B687B617B6966
:104100001B685A68BB689A42F6D37B691A68FB68D9
:104110001A607B69FA681A60FB685A68054B1B686D
:10412000D218044B1A60FCF71FFEBD4606B080BDD6
:10413000E01800201800002080B582B000AF0D4BC1
:10414000072293437B600C4B7A681A600A4B00226B
:104150005A600A4B0A4A5A60084B00221A607B6870
:104160003B603B68064A5A603B68044A1A60BD4699
:1041700002B080BD78010020E0180020E81800207F
:1041800068170000002934D00123002210B48842AF
:104190002CD301242407A14204D2814202D2090176
:1041A0001B01F8E7E400A14204D2814202D2490097
:1041B0005B00F8E7884201D3401A1A434C08A0423A
:1041C00002D3001B5C0822438C08A04202D3001BD0
:1041D0009C082243CC08A04202D3001BDC082243E7
:1041E000002803D01B0901D00909E3E7101C10BC0B
:1041F0007047002801D00020C04307B4024802A144
:104200004018029003BDC046190000000029F0D0FC
:1042100003B5FFF7B9FF0EBC4243891A1847C046E1
:104220007047C046F0B50F2A35D9031C0B439C07D5
:1042300035D1161C103E36093501451910350C1CB8
:10424000031C27681F6067685F60A7689F60E76856
:104250001034DF601033AB42F3D1731C1B01C5185F
:10426000C9180F231340032B1BD91C1FA4080134AA
:10427000A4000023CE58EE500433A342FAD1ED1827
:10428000C91803231A4005D00023CC5CEC54013339
:104290009342FAD1F0BD051C002AF5D1FAE7051CBE
:1042A000F2E71A1CF8E7C046F0B5474680B482B082
:1042B00083074FD0541E002A48D0CEB2031C0325DA
:1042C00003E0621E002C41D0141C01335A1E1670EC
:1042D0002B42F6D1032C31D9FF250D402A0215437C
:1042E0002A0415430F2C18D9271C103F3F093E0103
:1042F000B0461026F618B44646461A1C66441560A9
:1043000055609560D5601032B242F8D101373F0157
:104310000F22DB191440032C10D9271F1E1DBF08C4
:104320000196BE00B446019E1A1C664420C2B242E9
:10433000FCD10137BF000322DB191440002C05D04B
:10434000C9B21C1919700133A342FBD102B004BCDD
:104350009046F0BD031C141CBCE7C0460023C25CA1
:104360000133002AFBD1581E7047C04670B5051CAA
:104370000020002A2CD02B1C0B439C0729D1032A98
:1043800027D92C680E68B44223D1131F002B1FD0ED
:10439000224EA219224EA24332420ED018E06A6881
:1043A00049688A422ED1043B002B10D01B4D511975
:1043B000914331420BD1211C051C281D0C1D032BE0
:1043C000EDD85A1E002B21D0211C051C02E0002034
:1043D00070BD013A2C78087884421BD1002AF6D0AF
:1043E000002CF4D06B1C0131AD1805E0AB42EED0CF
:1043F000002CECD0013301311C780A789442F5D0BE
:10440000A01AE5E75A1E211C051CE3E72C790A795E
:10441000A01ADDE7021CA01ADAE7C046FFFEFEFE86
:104420008080808035363738010000001516171857
:1044300001000000A3000000A4000000A50000008F
:10444000A6000000353637380100000000010203E5
:1044500004050607080900004C45445F424C5545D9
:1044600000000000546D72205376630049444C45AF
:104470000000000035363738010000001516171807
:1044800001000000A3000000A4000000A50000003F
:10449000A600000035363738010000004C656E7408
:1044A0006F57726974652F526561643A00000000AD
:1044B00054782E4D6573736167653A005350490017
:1044C000475245454E000000424C55450000000053
:1044D000424F5448000000005057525345540000CA
:1044E0005057525245534554000000004345534530
:1044F0005400000043455245534554004E4F505020
:10450000000000005354415455530000434F4E46A1
:1045100049470000C0440008C8440008D0440008CF
:10452000D8440008E0440008EC440008F4440008C3
:10453000FC440008044500080C450008501E000813
:10454000641E0008781E00089E1E0008A41E0008B5
:10455000AA1E0008B01E0008B61E0008BC1E0008F7
:10456000C21E0008555341525431000025642000FA
:08457000FFFF00004B4559005C
:104578000000000001020304010203040607080901
:0C458800FFFFFFFFAAAAAAAA6817000004
:0400000508000000EF
:00000001FF
