:1000000000000220954E0000CB4E0000CD4E0000B7
:10001000CF4E0000D14E0000D34E0000C94E00006C
:10002000C94E0000C94E0000C94E0000D54E000068
:10003000D74E0000C94E0000D94E0000DB4E000034
:10004000851100004D4A000069020000E34E0000E7
:10005000E54E000079330000E94E0000EB4E000051
:10006000ED4E0000EF4E0000F14E0000954A0000FA
:1000700015450000F74E0000F94E0000FB4E000051
:10008000FD4E0000FF4E0000014F0000034F000036
:10009000054F0000074F0000094F00000B4F000004
:1000A0000D4F00000F4F0000114F0000134F0000D4
:1000B000154F0000174F0000194F00001B4F0000A4
:1000C0001D4F00001F4F0000214F0000234F000074
:1000D000254F0000274F0000294F000000000000BE
:1000E0000000000000000000000000000000000010
:1000F0000000000000000000000000000000000000
:1001000010B5054C237833B9044B13B10448AFF351
:1001100000800123237010BD80000020000000003B
:100120003C58000008B5064B1BB106480649AFF322
:1001300000800648036813B1054B03B1984708BD1A
:10014000000000003C5800008400002080000020D7
:1001500000000000154B002B08BF134B9D46A3F574
:10016000803A00218B460F461348144A121A05F0B4
:10017000B0F80F4B002B00D098470E4B002B00D04F
:1001800098470020002104000D000D48002802D0EF
:100190000C48AFF3008005F06DF82000290000F056
:1001A00013F805F053F800BF00000800000002201B
:1001B000000000000000000080000020F802002085
:1001C000000000000000000010B5C0B004F0D6FF31
:1001D000204B68461C6801F01FFAB4F1805F0AD317
:1001E0009DF80030032B06D11B4B1A6822F05002F9
:1001F00042F010021A6001210A46022000F092FF2C
:100200000421512000F0DAFD002004F011FD134814
:1002100004F07CFD0121002004F060FD04F06CFF7F
:1002200004F040FB88B10E4804F070FD68460021E0
:10023000FF2205F04EF86846002104F0A1FB0028DB
:10024000F9D0684600F01EF8F5E7064804F05EFDB8
:10025000FEE700BFFC81E00FC0800C40105300009F
:100260001853000020530000044A01231068044979
:100270001844106018468B6104F05ABFF002002049
:100280000000014010B5044638B105F02AF8C1B2AB
:100290002046BDE8104004F0B3BB10BD204A214BFE
:1002A00090425B680AD903F00702023A23F0070381
:1002B000012A94BF43F0050343F004031A4A1B4983
:1002C00002448A4211D803F00702023A032A23F0BB
:1002D000070305D8012101FA02F212F00B0F19D120
:1002E00043F001030F4A53607047114A9042F9D816
:1002F00003F00702023A032A23F00703F2D8012190
:1003000001FA02F212F00B0F064A18BF43F0020383
:1003100053607047034A43F003035360704700BFC4
:100320000048E80100000C40FFDB0BFFFF23F40056
:100330000024F40000F00F00013808B5042851D85B
:10034000DFE800F01323324103002C4BDB6A03F497
:100350006033B3F5803F41D0B3F5003F40D0B3F5F3
:10036000004F0CBF0820012008BD244BDB6A03F4BA
:100370007053B3F5805F33D0B3F5005F2ED0B3F583
:10038000006F0CBF0420052008BD1C4B986A00F0CC
:100390000300022823D003282BD0012820D09B6AF9
:1003A000DA030ED5092008BD144A936A03F00C0342
:1003B000082B13D00C2B1CD0042B11D0936ADB021A
:1003C000F0D4012008BD0D4B1B6813F0805312D0F0
:1003D000B3F1805F0CBF0820012008BD022008BDDA
:1003E000032008BD064840F2875103F0BFFA002001
:1003F00008BD062008BD072008BD00BF00800C40D6
:100400002853000000F47810B0F5602F08B500F014
:10041000FF8016D8B0F5C02F00F0E7803AD8B0F5CD
:10042000003F00F0B280B0F5802F00F0518100282D
:1004300000F0B980C2484FF49D6103F097FA0020A4
:1004400008BDB0F5B01F00F02C8146D8B0F5901F64
:1004500000F08980B0F5A01F00F0AF80B0F5801FDC
:10046000E8D1B84A936A03F00303022B00F04481F9
:10047000032B00F0A681012B00F09281B14B9B6A07
:10048000180C01D004F02EFEAE4B9B6E03F003035C
:10049000D84008BDB0F5202F4DD0B0F5402F00F06A
:1004A000D480B0F5002FC5D1A64A936A03F00303A8
:1004B000022B00F02A81032B00F07881012B00F041
:1004C0007281A04B9B6A180C01D004F00BFE9D4B6F
:1004D0009B6EC3F30313D84008BDB0F5D01F13D0F3
:1004E000B0F5E01F00F0CF80B0F5C01FA2D1964854
:1004F000FFF720FF072807D0082854D090484FF472
:10050000CA7103F033FA9AE78E4B5B6903F4E06338
:10051000B3F5007F00F07A8140F2DE80B3F5C06F62
:1005200000F07881B3F5E06F00F07281B3F5407FA1
:1005300085D1864808BD834A936A03F00303022BE2
:1005400000F0D780032B00F00781012B00F0F4802E
:10055000936A180C01D004F0C5FD7A4B9B6EC3F36F
:100560000323D84008BD774A936AC3F38103022B63
:1005700000F09380032B00F0D180012B00F0B580B8
:10058000936A180D3FF45CAF3EE004F03FFD6D4B05
:100590001A689B68C2F382320132B0FBF2F003F0BA
:1005A0000F03D84008BD04F031FD664B1B68C3F350
:1005B00082330133B0FBF3F008BD624A936AC3F3A0
:1005C0008103022B00F0A780032B00F0DF80012BBA
:1005D00000F0D980936A1B0D40F024810020594B14
:1005E0001B6F03F00303D84008BD564A936A03F01B
:1005F0000303022B51D0032B00F09080012B74D009
:10060000936A180C3FF41CAFBDE8084004F06ABDC3
:100610004C4A936A03F00303022B79D0032B00F0BA
:10062000A580012B00F0AC80936A180C01D004F077
:1006300059FD444B9A6EDB6FC2F30132D04003F098
:1006400007030133B0FBF3F008BD3E4A936A03F0A1
:100650000303022B53D0032B00F0CE80012B00F0BC
:10066000C880936A1B0C40F0E0800020354B1022BC
:100670009B6EB2FA82F2D2B2C2F11F02C3F301330F
:100680001344D84008BD3248FFF754FE03282CD04D
:1006900008284DD002287FF4D2AEBDE8084004F00F
:1006A00025BD284A936AC3F38103022B2AD0032B6A
:1006B00000F09580012B00F08F80936A180D01D017
:1006C00004F010FD1F4B1B6FC3F30113D84008BD8E
:1006D000BDE8084004F02ABC002B00F09D80B3F573
:1006E000807F7FF4ACAE1B4808BDBDE8084004F035
:1006F000F5BC04F0FBFC30E704F0F8FCC4E604F0C1
:10070000F5FCB3E704F0F2FCDCE704F0EFFCDEE616
:1007100004F0ECFC8DE704F0E9FC60E75368D905D0
:1007200002D413685A0079D504F000FC800808BD93
:10073000BDE8084004F06ABC04F0D0FC0DE700BF3F
:100740002853000000800C400400180040420F00B5
:1007500005231C00C0D8A7005368D90502D413682C
:100760005A0075D504F0E2FB8008F6E65368D90517
:1007700002D413685A0073D504F0D8FB800858E7F8
:1007800004F0ACFC55E704F0A9FC28E75368DB054E
:1007900002D41368580057D504F0C8FB80081EE740
:1007A00004F09CFC70E604F099FC90E65368DB05CD
:1007B00003D42D4B1B6858004ED504F0B7FB8008BE
:1007C00085E65368DB0503D4274B1B6858002FD5FB
:1007D00004F0ACFB800857E604F080FC72E7536835
:1007E000D90502D413685B0026D504F09FFB80086E
:1007F00068E704F073FC39E75368DB0502D413683B
:1008000058001DD504F092FB80082FE7174808BD5B
:10081000174808BD174808BD174808BD04F086FBF7
:10082000400808BD04F05EFCD9E604F05BFC1DE75F
:1008300004F07CFB400827E604F078FB400841E721
:1008400004F074FB400811E704F070FB4008C6E6B2
:1008500004F06CFB400880E604F068FB400836E6D4
:1008600004F064FB4008E4E600800C40C0CF6A005E
:10087000406F4001003FAB01809FD50038B5C0F309
:100880000313013B0C46042B00F2DC80DFE803F08D
:100890002B3C8BB403004C1E072C04D9B84840F203
:1008A0003B3103F063F8B74B5B6803F00702052A9E
:1008B0000AD8012101FA02F212F02C0F40F0ED806B
:1008C00012F0130F40F02B81AE49AF4A4B60136812
:1008D00023F4E03343EA8434146004F027FBBDE8DA
:1008E0003840FFF7DBBC4D1EB5F5007F80F0358149
:1008F000B4FA84F4A44BE4B29A68C4F11F0422F061
:100900000F0222439A6038BDB1F5007F00F21F81CB
:100910009C4B5B6803F00702052A0AD8012101FA03
:1009200002F212F02C0F40F0BD8012F0130F40F0D5
:10093000F180944A51205360FFF764FD934BB0FB64
:10094000F4F5DB6CC3F307434A2B00F031814B2BEA
:1009500000F01381482B00F00E8189487C2103F0C0
:1009600005F800239D428A498A4A94BF0023012347
:100970000B601360631EB3F5004F03D38048BB21A7
:1009800002F0F4FFB4FA84F47F4BE4B25A68C4F185
:100990001F0422F00F0222435A6004F0C7FABDE898
:1009A0003840FFF77BBC7C4B984200F03A817ED9FF
:1009B0007A4B984200F01181794B984240F0B48014
:1009C000082900F25A81704A536DD90740F194808A
:1009D000631EB3F5004F03D36948BB2102F0C6FF85
:1009E000B4FA84F1684BC9B29A6EC1F11F0122F0CA
:1009F00003020A439A6638BD6A4B984230D003F529
:100A00000433984225D1082900F295805E4A536D3F
:100A1000D90710D5631EB3F5004F76D2B4FA84F12E
:100A2000594BC9B21A6FC1F11F0122F0300242EADC
:100A300001121A6738BD136D5B06EBD5136D5B06AB
:100A4000F9D4E7E74E4840F2EB31BDE8384002F018
:100A50008DBF4B4840F2E531BDE8384002F086BF1B
:100A600008296ED8484A536DDD070FD5631EB3F5CC
:100A7000004F45D2B4FA84F1434BC9B21A6FC1F1A9
:100A80001F0122F003020A431A6738BD136D58068E
:100A9000ECD5136D5806F9D4E8E723F0070343F0CB
:100AA000050311E723F0070343F0050341E7A3F52E
:100AB0000433984238D1B1F5004F00F2E480324A55
:100AC000536DDD0714D5631EB3F5004F03D32C48D7
:100AD000BB2102F04BFFB4FA84F12B4BC9B29A6EE2
:100AE000C1F11F0122F0F00242EA01129A6638BDFC
:100AF000136D5807FCD4E6E7136D5B07FCD467E77A
:100B00001F48BB2102F032FFB4E71D48BB2102F0B1
:100B10002DFF83E723F0070343F0040309E723F0E5
:100B2000070343F00403CFE6154840F2BE31BDE8A9
:100B3000384002F01BBF124840F2D73102F016FFD6
:100B400064E70F484FF4727102F010FF8AE70C4817
:100B500040F2563102F00AFFDAE6094840F24E311F
:100B600002F004FFB5F5004FFFF4C2AE0448BB210C
:100B700002F0FCFEBCE60C4BF4E60C4BF2E600BFC8
:100B80002853000000000C4000800C40B081E00FB2
:100B900078009043A000904330240A0030000C00FD
:100BA00030041000400514000048E80100366E01D2
:100BB000384A394910699369D26900F03F00C2F39D
:100BC000031242EA002003F0F003344A0343B3F572
:100BD000017F34BF0B461346C4E6A1F11003702B0E
:100BE00045D82F4A536DDD0717D5631EB3F5004F67
:100BF00003D32C48BB2102F0B9FEB4FA84F4284B8D
:100C000010219A6EB1FA81F1E4B2C9B2091B22F443
:100C1000405242EA01329A6638BD136D5807FCD43F
:100C2000E3E7B1F5004F1CD81D4A536DD90714D521
:100C3000631EB3F5004F03D31A48BB2102F096FEA2
:100C4000B4FA84F1164BC9B29A6EC1F11F0122F4B5
:100C5000706242EA01229A6638BD136D5B07FCD4CC
:100C6000E6E7104840F2923102F080FEDCE70D48E2
:100C700040F2A13102F07AFEB3E70A484FF46C71FA
:100C800002F074FE9FE607484FF4617102F06EFEB9
:100C900015E700BFD0FF0FE00048E80100366E0105
:100CA00000800C4028530000C0F30323013B70B5C3
:100CB00004460D46052B41D8DFE803F01D16213D03
:100CC000031F2F4A10212F48C4F30434436DDB0760
:100CD00003D522449200156070BD036D1942F8D00F
:100CE000036D1942F9D1F4E7274AC4F304342244CE
:100CF0009200156070BD254AF7E7254AF5E72548BB
:100D0000FFF780FB244B0646DB6CC3F307434A2BFB
:100D100021D04B2B1DD0482B17D020487C2102F02E
:100D200025FE00239E4212D91D4A1E49012313604D
:100D30001D4A0B60D9E71D4A0121C4E7174840F25C
:100D40003E41BDE8704002F011BE194BEAE7164A79
:100D5000CBE7184BE6E7184A154910699369D26941
:100D600000F03F00C2F3031242EA002003F0F00358
:100D7000104A0343B3F5017F34BF0B461346D1E756
:100D80000003E41000800C402002E4104000E41056
:100D9000C003E41020000400B081E00F28530000DD
:100DA00078009043A00090430002E410C002E410D9
:100DB0000048E80100366E01D0FF0FE038B500F0C2
:100DC0000F04631E042B38D8DFE803F0291A1A1029
:100DD000030003293ED0082962D0022950D0BDE883
:100DE0003840AC4840F29F6102F0C0BD07292BD0CB
:100DF00008293ED1A84B1A6842F080521A6038BDCB
:100E00000139082900F20A81DFE811F0920096000A
:100E1000A30008010801AF00080108017B000239A6
:100E2000072900F2F480DFE811F07D00EE00C20037
:100E30004200F200F200F200E700964840F2A7619B
:100E4000BDE8384002F092BD934B1A6822F0805200
:100E50001A6038BD904A40231362D36A8E4C19063B
:100E6000FBD500F0CFF960236362E36A9B03FCD5F6
:100E700038BD88484FF4CE61BDE8384002F076BDF9
:100E8000854A4FF480731362D36A834C9D05FBD56A
:100E900000F0B8F940236362E36AD803FCD538BD9B
:100EA0007D4A20235362D36A1B04FCD538BD01243C
:100EB0000123022278490B62CB6A1A42FCD000F06F
:100EC000A1F9764B5B6803F00702052A0DD80121D2
:100ED00001FA02F212F02C0F40F0A78012F0130F6B
:100EE00003D023F0070343F004036C496A4A4B60C4
:100EF000546200F087F904F019F8BDE83840FFF7B4
:100F0000CDB94FF480114FF480330022022C00F051
:100F10009180614A936A23F4801323F00C030B43FE
:100F2000936238BD04244FF480734FF40072C1E71C
:100F300000210B460A46E9E7574A4FF480731362D3
:100F4000D36A9805FCD500F05DF908210023022240
:100F5000DCE7514A40231362D36A1906FCD500F03E
:100F600051F9042100230122D0E74D4B01221A60E0
:100F700003F0DCFF4B4B0546DB6CC3F307434A2B06
:100F800000F09C804B2B00F08380482B7ED04148A2
:100F90007C2102F0EBFC00239D425BD94249434A8D
:100FA00001230B6013600C2100230322AEE704F041
:100FB0008DF83C4B0446DB6CC3F307434A2B4FD000
:100FC0004B2B4BD0482B5FD032487C2102F0CEFC1B
:100FD00000239C42304B1A6836D942F0804242F0DE
:100FE00060021A601B6CDC0602D5304B01221A60CD
:100FF0000224042308225DE7264840F2F55102F05E
:10100000B5FC032454E703244023802252E72148FF
:1010100040F2FA51BDE8384002F0A8BC1D4840F249
:101020004561BDE8384002F0A1BC23F0070343F05E
:1010300005035AE718481343816A21F4803121F0EF
:1010400003011943816238BD22F0600242F02002A0
:101050001A60CDE70C210023032257E7144BB8E7B1
:10106000144A154B10699169D26900F03F00C2F330
:10107000031242EA002001F0F0010D4A0143B1F5EC
:10108000017F28BF1346A4E70B4BA2E70A4B83E777
:10109000074B81E72853000000800C4000000C4003
:1010A00010089043B081E00F78009043A000904377
:1010B00000366E01D0FF0FE00048E801094A0A4BF4
:1010C00010699169D26900F03F00C2F3031242EA4D
:1010D000002001F0F001054A0143B1F5017F28BF6E
:1010E000134659E7D0FF0FE00048E80100366E01D3
:1010F000802810B504460BD8084B9A6D120706D409
:10110000DA6F04F0070422F007021443DC6710BD15
:10111000034840F2D47102F029FCEDE700800C4056
:1011200028530000052824D8DFE800F01B20030F17
:10113000171A0423082061B110490B621AB10A463C
:10114000D36A1842FCD000F05DB8012302200029C8
:10115000F2D10A4B186200F055B810232020EAE7BC
:1011600070474FF480734FF40070E4E74023802011
:10117000E1E7034840F62B0102F0F8BB00800C4089
:10118000285300002DE9F84F1B4A1C4B41F20C017B
:10119000126859580A402CD4996BDFF8648099463C
:1011A00002EA010422EA010B0227F4B100254FF004
:1011B000010AE30715D50AFA05F2D9F80830C8F88C
:1011C000002003EB0513DB68284653B11A7A1E682A
:1011D000111C82F0010218BF01211A720EB15A6867
:1011E000B047640805F10105E3D1013F02D1BDE834
:1011F000F88FFEE75C46D8E700300C4000200C403A
:1012000008300C40024A034BD26A1A80704700BF74
:1012100000800C409C0000200528F8B504460D46CF
:1012200016461F4622D80F2920D82EBBE200072DD4
:101230002FD8AB004FF00F0C0CFA03FC06FA03F3A7
:101240001119890001F1804101F5C041486820EA87
:101250000C0003434B6046B9012303FA05F5224411
:101260009FBB1D4B920013445D60F8BD1B48CC2111
:1012700002F07CFB002ED9D00121A940E200F7B199
:1012800013199B0003F1804303F5C043072D196137
:10129000CFD905F18043083B9B004FF00F0C0CFAAF
:1012A00003FC06FA03F31119890001F1804101F5ED
:1012B000C041886820EA0C0003438B60CBE710191B
:1012C000054B800003445960B1E7920002F180426F
:1012D00002F5C0421561F8BD106000403C530000AB
:1012E00038B5124B04465D68D0B16368E16825F4F7
:1012F00083021943257A0D4B22F01F02607A0A43BC
:101300002A431968258A024320782A4321F00101E3
:1013100019605A6018B11A6842F001021A6038BDAB
:101320000348432102F022FBDFE700BF00A0084092
:1013300050530000054BB0F5803F5B68034A23F42F
:10134000803308BF43F480335360704700A00840E7
:10135000044B9A6819B922EA00009860704710435C
:101360009860704700A00840072870B504460D46F5
:1013700016460FDC272D07DC072C4FD8DFE804F0DA
:10138000181F272F363E46102A484FF4887102F066
:10139000EDFAF1E7274840F2091102F0E7FAE9E730
:1013A0001F2DD4BF244B254B2B449B001E6070BDCA
:1013B0001F2D3ADC224B2B449B001E6070BD1F2D5D
:1013C000D4BF204B204B2B449B001E6070BD1F2DB3
:1013D000D4BF1E4B1E4B2B449B001E6070BD1F2DA7
:1013E00023DD1C4B2B449B001E6070BD1F2DD4BF02
:1013F000194B1A4B2B449B001E6070BD1F2DD4BF90
:10140000174B184B2B449B001E6070BD1F2DD4BF83
:10141000154B164B2B449B001E6070BD054840F2D7
:101420008B11BDE8704002F0A1BA114B2B449B0018
:101430001E6070BD50530000C006C510E005C51009
:101440000002C5102002C5108002C5104002C51060
:10145000A002C510C002C5106006C5108005C510E9
:101460008006C510A005C510A006C510C005C51092
:101470006002C510072870B504460D46164607DC05
:10148000072C53D8DFE804F0141C242C343E480AFF
:101490002A4840F2A51102F069FAF1E7284B2E40E4
:1014A000D3F8D82022EA05053543C3F8D85070BDDB
:1014B000234B2E401A6C22EA050535431D6470BD8E
:1014C0001F4B2E405A6C22EA050535435D6470BD02
:1014D0001B4B2E409A6C22EA050535439D6470BD76
:1014E000174B2E40DA6C22EA05053543DD6470BDEA
:1014F000134B2E40D3F8CC2022EA05053543C3F820
:10150000CC5070BD0E4B2E40D3F8D02022EA0505FA
:101510003543C3F8D05070BD094B2E40D3F8D420CA
:1015200022EA05053543C3F8D45070BD03484FF493
:10153000F371BDE8704002F019BA00BF50530000CB
:1015400000A00840072870B504460D46164611DC79
:10155000072C0ED8DFE804F0141C242C343E480479
:10156000264B2E40D3F8C02022EA05053543C3F8A8
:10157000C05070BD224840F2FF1102F0F7F9E7E7D2
:101580001E4B2E401A6D22EA050535431D6570BDC0
:101590001A4B2E405A6D22EA050535435D6570BD34
:1015A000164B2E409A6D22EA050535439D6570BDA8
:1015B000124B2E40DA6D22EA05053543DD6570BD1C
:1015C0000E4B2E40D3F8B42022EA05053543C3F86C
:1015D000B45070BD094B2E40D3F8B82022EA05055F
:1015E0003543C3F8B85070BD044B2E40D3F8BC202F
:1015F00022EA05053543C3F8BC5070BD00A0084081
:1016000050530000034B5A6822F4E0121043586014
:10161000704700BF00A0084010B50446B0B10E4BA3
:1016200059691A6901F00F01C2F3811242EA81027D
:10163000A2701A6902F03F0262709A69DB6902F0D7
:10164000F002C3F303131343237010BD03483F217B
:1016500002F08CF9E3E700BFD0FF0FE06453000015
:10166000F8B52F4B054698420C460FD003F5806322
:1016700098420BD003F58063984207D003F580634E
:10168000984203D027484F2102F070F923780BB914
:1016900002226A60E278A178207A1204667842EA2F
:1016A0000162A179E7790243607A002E42EA812241
:1016B000A67A0CBF0021402142EA07220028E07AE6
:1016C000277942EA01020CBF00218021002E42EA64
:1016D000010266790CBF00212021002842EA0102A4
:1016E000207B0CBF00211021002F42EA01020CBF19
:1016F00000214FF40051002E42EA01020CBF0021EC
:101700004FF08051002842EA01020CBF002108215D
:101710000A43002169622A600BB101236B60F8BDA6
:10172000000001407C530000F8B5294B0546984263
:101730000E4614460FD003F5806398420BD003F594
:101740008063984207D003F58063984203D0214814
:10175000882102F00BF9022E34D863782178A2791F
:101760001B0643EA8163A1781343E278207943EAB8
:101770000143E17943EA0233277A6279002943EA97
:101780008023607A43EA0223A17A0CBF00224FF43F
:101790000012002F43EA02030CBF00224FF4801214
:1017A000002843EA02030CBF00221022002943EA6A
:1017B000020306F103060CBF002204223601134384
:1017C000AB51F8BD0348892102F0D0F8C5E700BF4E
:1017D000000001407C530000F8B5374EC2B23468B7
:1017E00002F00F02A31801064CBF93F8D43093F80F
:1017F000E430B3B9002A57D1343455D0A378002B44
:101800004BD072B62D4D2B685A1C01D001332B6082
:1018100094F820205AB9013B2B6003B962B600202E
:10182000F8BD03EB830304EBC3043434E6E7237809
:101830002046002B2AD102F0E9FA676A002384F8D7
:10184000203067B132686362116A1D4A01F0FF11EE
:1018500091420DD06FF0050061692269B8472B688D
:10186000164A002BDBD0013B1360002BD6D0D6E705
:101870002278A178E08962B9124B49010004CA506C
:10188000114BD96921EA0002DA61E3E702F050FA6C
:10189000D3E70E4A49018B50F2E70D48522102F07E
:1018A00065F86FF00300F8BD09484B2102F05EF8BF
:1018B0006FF00300F8BD00BF00000020A000002072
:1018C00004000500000B1040000810400009104003
:1018D000E0530000024B1B6893F82000704700BFE4
:1018E000000000202DE9F04F804685B05120FEF722
:1018F00021FD042803D051200421FFF75FFA0020C6
:1019000002460121FFF70EFC02F0ECFEBB49F82273
:101910000868002103F0DDFC98E80A00B74A0726B2
:101920001468D8F80820201D2060E2626162A3627A
:1019300098F80C100022A177D8F8140084F836200B
:1019400084F8372084F8382084F83920D8F80050FB
:10195000012184F82060206384F8212084F822206B
:10196000627784F83420E263A4F8421095F8079077
:10197000B9F1200FA4F8409000F00F81B9F1400FA9
:1019800040F02981C4F8F420D8F8102000214FEA53
:10199000990020656164A16484F85410A1651278EF
:1019A000B3F802E002FB00F99E444A4473450292F8
:1019B00080F034811A78002A00F0E5808A464FF0E2
:1019C000010C03910D460E46CDF8049009E0042960
:1019D00000F0B78013449E4557D91A78002A00F0CA
:1019E000D28059780529F2D101359F7805EB850120
:1019F00004EBC10101F13402FF0981F834709660F3
:101A000098784FF0010900F00F0109FA01FBD0703E
:101A10009170A2F80EB0D87800F003001071B3F8FE
:101A200004B0D8F81000A2F80CB01661566182F824
:101A300020605662405D002800F0C580002F00F055
:101A4000878082F805C0D8F810000BF1030B405DC9
:101A50004FEAAB0B00FB0BF02144D06181F8D4506E
:101A6000D1690398DDF8049092780CF1010C0130F3
:101A70008944062A5FFA8CFC0390CDF8049000F2AA
:101A8000B5801A7813449E45A7D8A26AE37F1279DD
:101A900002999A42DDF8049001F1190640F0CA80DB
:101AA000032D40F0BF80039A062A00F2DA80BAF1D3
:101AB000060F00F2DE8072B6514D524C2B68524830
:101AC0005A1C1CBF01332B60504B08211A6C42F08A
:101AD0000C021A64FFF772F9A368494623F0010368
:101AE0003046A36001F044FF4949002840F0AA8035
:101AF0004FF4C053A061A361A068464B202240F080
:101B00000100A060C3F880211A604B6813F0010146
:101B100046D13A480268136B92F820005B6882F85D
:101B2000220082F820100BB100B198472B68344A8C
:101B30001BB1013B136003B962B6002005B0BDE8DC
:101B4000F08FE17F9A788A4248D10132E27798E7B4
:101B50000BF1030B4FEAAB0B0BFB00002144D061F0
:101B600081F8E450D169029892780844062A0AF173
:101B7000010A029085D9284840F27F1101F0F6FE53
:101B80006FF0030006E0244840F2491101F0EEFE38
:101B90006FF0030005B0BDE8F08FC4F8F410F3E671
:101BA000DFF858900221D9F800301A6B93F8200022
:101BB000526883F8220083F82010002AB6D08842A9
:101BC000B4D09047B2E714484FF4B17101F0CEFEA3
:101BD0006FF00300DEE76FF00300DBE70E4840F232
:101BE0008B1101F0C3FE6FF00300D3E70A4840F207
:101BF000711101F0BBFE6FF00300CBE70000002085
:101C0000A00000200000104005231C0000800C40B4
:101C100000400C4000E100E0E05300001A79E37F4F
:101C20009A4207D117484FF4D27101F09FFE6FF02E
:101C30000300AFE7134840F29D1101F097FE6FF0EB
:101C40000300A7E72B68104A1BB1013B136003B9DF
:101C500062B60C4840F2C91101F088FE6FF0030033
:101C600098E7084840F2AB1101F080FE6FF00300E6
:101C700090E704484FF4D97101F078FE6FF003004B
:101C800088E700BFE0530000A00000202DE9F843E2
:101C9000804F10F0800FC5B2386805F00F0500EBDB
:101CA000050414BF94F8D44094F8E440002C4BD1C0
:101CB000002D40F0D880343000F0D580B2F5002FF0
:101CC0004CDA848992FBF4F4B4F5806F46DA8C0721
:101CD00040F0C08072B6704C90F8008025686E1C91
:101CE0001CBF013525608678B8F1000F15D1DFF8EB
:101CF000B0914FEA461C5CF8099019F4002F15D0FA
:101D0000C9F34059B9F1000F10D0013D25600DBB5A
:101D100062B66FF00400BDE8F883DFF888914FEAFF
:101D2000461C5CF8099019F4002FE9D190F8209036
:101D3000B9F1000F1BD0013D2560002D4BD162B6DB
:101D40006FF00100BDE8F88304EB840400EBC400ED
:101D50003430B3E76FF00400BDE8F8834F4840F239
:101D6000062101F003FE6FF00300BDE8F88366B1C1
:101D70003E6896F82060052E38D0013D25608DBB69
:101D800062B66FF00800BDE8F883B0F80C80DFF8A9
:101D900018C13F684FF002090261466143628160E9
:101DA000067080F8209048F40023CCF81413D7F87C
:101DB000F420CCF81033DCF8003342F0044223F076
:101DC0003C431343CCF80033013D25603DB962B676
:101DD0000020BDE8F8836FF00100BDE8F883002023
:101DE000BDE8F8836FF00800BDE8F8838160026108
:101DF000C0F81490B8F1000F3ED10226436280F87B
:101E000020601AB3868906F1FF389044B8FBF6F8D3
:101E100006FB08F64FEAC848214B48EA0608634427
:101E20001F691F4A07F0604748EA07071F61837868
:101E300086615B011A4451618278194B5201D15875
:101E400021F03C4141F00441D150BDE786894FF477
:101E50000028E1E7114840F20D2101F087FD6FF005
:101E60000300BDE8F8830D484FF4FF7101F07EFDDB
:101E70006FF00300BDE8F883013D256005B962B647
:101E8000064840F2332101F071FD6FF00300BDE818
:101E9000F88300BF00000020A0000020E0530000F5
:101EA000000B1040000910400008104008B50A4B14
:101EB00001461B6806291A6B93F82000526808BF78
:101EC00083F8210083F8220083F8201012B18842A1
:101ED00000D0904708BD00BF000000202DE9F84366
:101EE000814F10F0800FC5B2386805F00F0500EB88
:101EF000050414BF94F8D44094F8E440002C4BD16E
:101F0000002D40F0DB80343000F0D880B2F5002F97
:101F10004CDA848992FBF4F4B4F5806F46DA8C07CE
:101F200040F0C38072B6714C90F8008025686E1C3A
:101F30001CBF013525608678B8F1000F15D1DFF898
:101F4000BC914FEA461C5CF8099019F4002F15D09B
:101F5000C9F34059B9F1000F10D0013D25600DBB08
:101F600062B66FF00400BDE8F883DFF88C914FEAA9
:101F7000461C5CF8099019F4002FE9D190F82090E4
:101F8000B9F1000F1BD0013D2560002D51D162B683
:101F90006FF00100BDE8F88304EB840400EBC4009B
:101FA0003430B3E76FF00400BDE8F883504840F2E6
:101FB000193101F0DBFC6FF00300BDE8F8836EB16E
:101FC0003E6896F82060052E3ED0013D2560002D2C
:101FD00036D162B66FF00800BDE8F8834FF0010C0F
:101FE000816002614661436280F800C080F820C0D1
:101FF0000AB980F801C080893E4B824228BF024660
:10200000386842F40022C3F81411D0F8F410C3F871
:102010001021D3F8002141F0044122F03C420A4350
:10202000C3F80021013D25603DB962B60020BDE83E
:10203000F8836FF00100BDE8F8830020BDE8F88365
:102040006FF00800BDE8F88381600261C0F8149069
:10205000B8F1000F3BD00126436280F820600AB33C
:10206000838903F1FF389044B8FBF3F34FEAC34888
:10207000214B1E466344D3F810C037460CF0004C89
:1020800042EA0C0242EA08021A6183785B011E44AC
:10209000716183785B01DA5922F03C4242F00442DC
:1020A000DA51BFE74FF40028E2E711484FF44871D6
:1020B00001F05CFC6FF00300BDE8F8830C4840F2CF
:1020C000113101F053FC6FF00300BDE8F883013DCE
:1020D000256005B962B6064840F2463101F046FC7B
:1020E0006FF00300BDE8F88300000020A00000208E
:1020F000E05300000008104000091040000B1040A1
:10210000036B70B59B680446056823B12846984761
:10211000C61C00D070BD2B7813F0600F14D16B7803
:102120000B2B11D8DFE813F09B00D60010002C0217
:1021300010007A021D011000420174010A0213000E
:102140009B88002B00F0FE834FF0FF3070BD2368AA
:10215000E27F99889142F7D2DA88002AF4D15A882E
:10216000002AF1D194F82020052AEDD11B7803F044
:102170001F03012BE8D19F4B1B6893F85C2093F859
:102180005E10002A40F0B1829B4849010A58B3F81A
:102190006A4016044FEA044400F1A282974DB3F856
:1021A0006860154045EA060242F0C05293F860505C
:1021B00042F4004242EA85420A50914A93F8841060
:1021C000D0692043D061002900F0708293F8861016
:1021D0008C4849010A58B3F89240150400F1618215
:1021E000894DB3F890601540354345F0C05593F8DC
:1021F000886045F4004593F8892045EA864545EA1C
:1022000082520A507E4A93F8AC10D0692043D061C4
:1022100093F8AE00002900F02C8202F58072400194
:102220008458B3F8BA10260400F11E82764DB3F834
:10223000B860254045EA060444F0C05493F8B05015
:1022400044F4004493F8B13044EA854444EA8353AB
:1022500083506B4B0020DA690A43DA6170BD236852
:102260005A88002A7FF470AFD98802297FF46CAFB6
:102270001A78D0093FF468AF02F01F02012A00F07B
:102280005483022A00F02383002A7FF45DAF9B88E9
:10229000002B7FF459AF94F82020043AD2B2012ADF
:1022A0003FF652AF594D627F2B8002B12980236BDC
:1022B000DB68002B00F08884984718B12B8843F026
:1022C00001032B800020034650490222BDE87040E4
:1022D000FFF704BE2368DA88002A7FF435AF1A7846
:1022E000C2F30402D0B2002800F02C8202287FF44E
:1022F0002BAF9A8812F0800FD0B23E4A00F00F0048
:10230000116801EB000214BF92F8D42092F8E42087
:10231000002A40F0228300287FF416AF34313FF4C6
:1023200013AF8A78002A3FF40FAF5B88002B7FF44D
:102330000BAF94F8200005287FF406AF087800283A
:1023400000F053842F48520111580C0340F16A8465
:1023500021F0705121F4001141F08051115058B218
:1023600070BD23681A7802F09F02802A7FF4ECAED9
:1023700059880A0A022AC9B200F0A382032A00F08F
:102380009782012A7FF4E0AE00297FF4DDAE616A16
:102390000A78002A3FF4D8AEDB8800209A4228BF92
:1023A0001A46BDE870400346FFF798BD23689A8837
:1023B000002A7FF4C9AEDA88012A7FF4C5AE5D88B1
:1023C000002D7FF4C1AE1B7803F09F03802B7FF4B8
:1023D000BBAE94F82030042B00F0C980052B7FF4AD
:1023E000B3AE284604F11C012B46BDE87040FFF750
:1023F00075BD00BF00000020000B104000F8D3C3E3
:10240000000810400009104000F813C09C01002093
:1024100023689A88002A7FF497AEDA88002A7FF42E
:1024200093AE5A88110A7FF48FAE1978C9067FF4EB
:102430008BAE94F82010042900F0B08105297FF4B8
:1024400083AE22B1A16A497991427FF47DAE2277B1
:102450005B88002B00F00683C94B1B6893F85C2057
:1024600093F85E00002A40F0CF82C64D40014159EA
:10247000B3F86A400E044FEA044400F18A82C24A6B
:10248000B3F868600A40324342F0C05293F86010DB
:1024900042F4004242EA81424251BC4A93F884101D
:1024A000D0692043D06193F88600002900F095821E
:1024B000B74D40014159B3F892400A0400F16E82D1
:1024C000B44AB3F890600A40324342F0C05293F8E5
:1024D000886042F4004293F8891042EA864242EA58
:1024E00081524251A94A93F8AC10D0692043D0617F
:1024F00093F8AE50002900F05682A54C6D012A5980
:10250000B3F8BA10160400F10C83A248B3F8B8600F
:10251000104040EA060242F0C05293F8B00042F484
:10252000004293F8B13042EA804242EA83532B5191
:10253000964BDA690A43DA61002070BD2368E27FB6
:1025400099889142BFF400AEDA88012A7FF4FCAD8D
:102550005D88002D7FF4F8AD1B7803F09F03812B7D
:102560007FF4F2AD94F82030052B7FF4EDAD8A4C6A
:102570002846257021462B46BDE87040FFF7AEBCCB
:102580002368DA88002A7FF4DFAD187810F01F0086
:1025900000F0C48002287FF4D7AD9A8812F0800F33
:1025A000D0B2774A00F00F00116801EB000214BFAF
:1025B00092F8D42092F8E420002A40F0D481002838
:1025C0007FF4C2AD34313FF4BFAD8A78002A3FF4C6
:1025D000BBAD5B88002B7FF4B7AD94F82030052BA2
:1025E0007FF4B2AD0878002800F00E8368485201ED
:1025F000135803F44024B4F5802F23F0705300F0F7
:102600001483002BB8BF43F0804343F400131350EE
:102610000020002340B281F8203070BD2568AB88CF
:10262000002B7FF491ADEB88002B7FF48DAD6B8890
:102630007F2B3FF689AD2A78D0067FF485AD94F8DC
:102640002020032A00F09480042A7FF47DAD002B23
:1026500000F095814D4ADBB21168002021F4FE6143
:1026600041EA0313136070BD24F0705343F08053AC
:10267000EEE5444A40018458B3F8BA1025044FEA05
:102680000141F1D4404DB3F8B860254045EA060455
:1026900044F0C05493F8B03044F4004444EA834317
:1026A000D6E522F0705242F08052AAE593F88610E7
:1026B000344849010A58B3F8924016044FEA0444DA
:1026C000EFD4314DB3F89060154045EA060242F070
:1026D000C05293F8885042F4004242EA854290E5A5
:1026E00022F0705242F0805266E5294849010A58AA
:1026F000B3F86A401504F3D4264DB3F8686015406A
:10270000354345F0C05593F8606045F4004593F8B3
:10271000612045EA864545EA82524DE59A88002ABD
:102720007FF412AD5B88012B7FF40EAD94F820206E
:10273000052A7FF409ADA26AD27995067FF504AD2A
:10274000637770BD998800297FF4FEAC5B88012B0C
:102750007FF4FAAC94F82030043BDBB2012B3FF657
:10276000F3ACA36ADB799D067FF5EEAC627770BDB2
:10277000002B3FF46FAF0420FFF798FB6B8869E7ED
:1027800000000020000B104000F8D3C300081040E8
:102790000009104000F813C09C010020A16A1AB182
:1027A000487990427FF4D0AC22775A884B799A428C
:1027B0007FF4C2AEA44B00211B6893F85C2083F821
:1027C0007C1093F85E40002A40F0D1819F4D640157
:1027D0006159B3F86A000E044FEA004000F1C2816B
:1027E0009B4AB3F868600A40324342F0C05293F803
:1027F000601042F4004242EA81426251954A93F8E5
:102800008410D56900242843D06183F8A44093F84C
:102810008640002900F08F818F4D64016159B3F823
:1028200092000A0400F182818C4AB3F890600A4059
:10283000324342F0C05293F8886042F4004293F869
:10284000891042EA864242EA81526251814A93F8F3
:10285000AC10D56900242843D06193F8AE5083F8BA
:10286000CC40002900F044817B486D012A58B3F820
:10287000BA40160400F199817849B3F8B860114064
:1028800041EA060242F0C05293F8B01042F400420E
:1028900093F8B13042EA814242EA83532B506D4BA8
:1028A0000520DA691443DC61FFF700FB002070BDEE
:1028B000A27F9142BFF648ACE26A52F821100A7832
:1028C00067E500297FF440ACA16A4A8861E59B88EE
:1028D00013F0800FD9B25C4B01F00F011A6802EBC4
:1028E000010314BF93F8D43093F8E430002B40D1A7
:1028F00000297FF429AC34323FF426AC94F8203020
:10290000042B41D0052B7FF41FAC1178937800295C
:1029100000F09380504A5B019B581A037FF514AC7A
:102920004F4AC3F340531380CCE494F82020042A88
:102930003FF406AC052A7FF407AC9A88E37F9A42FD
:10294000BFF402AC464C0025284621462B46258084
:102950000222BDE87040FFF7C1BA02EB820201EB30
:10296000C2013431DDE402EB820201EBC2013431F9
:102970002BE603EB830302EBC3023432BEE70320F2
:10298000FFF794FA6B8865E69378002BBDD0FFF7CC
:10299000DBBB21F0705242F080527DE521F0705295
:1029A00042F080529DE5294C6D012A59B3F8BA10C6
:1029B00010044FEA014100F1F3802548B3F8B860F4
:1029C000104040EA060242F0C05293F8B03042F4A0
:1029D000004242EA83422A51AAE51C4D4001415976
:1029E000B3F892400E044FEA0444D7D4184AB3F81F
:1029F00090600A40324342F0C05293F8881042F48B
:102A0000004242EA81426CE5134D40014159B3F85E
:102A10006A400A04BDD4114AB3F868600A403243E0
:102A200042F0C05293F8606042F4004293F86110A3
:102A300042EA864242EA81522EE5044A5B019B58F3
:102A40001E037FF581AB6BE700000020000B1040F8
:102A500000F8D3C3000810400009104000F813C06C
:102A60009C0100200420FFF721FA714B1B6893F8AA
:102A70007C2082B993F85C4093F85E00B3F86A104A
:102A8000002C00F09C806B4C400102516A4AD069D6
:102A900020EA0101D16193F8A42082B993F884401F
:102AA00093F88600B3F89210002C00F09480614CEB
:102AB00040010251604AD06920EA0101D16193F8D6
:102AC000CC4084B993F8AC1093F8AE00B3F8BA20B8
:102AD000002900F08580574B4001C450564BD969FE
:102AE00021EA0202DA616FF0080001F0B7FC23E589
:102AF00052486D012A58B3F8BA4011044FEA044411
:102B000058D44F49B3F8B860114041EA060242F088
:102B1000C05293F8B03042F4004242EA83422A5055
:102B2000BDE622F0705343F0805300E521F070526F
:102B300042F0805289E6414D64016159B3F8920038
:102B40000E044FEA0040F1D43D4AB3F890600A40C9
:102B5000324342F0C05293F8881042F4004242EAF5
:102B6000814272E621F0705242F0805245E6314DCA
:102B700064016159B3F86A000A04F3D4314AB3F826
:102B800068600A40324342F0C05293F8616042F4F8
:102B9000004293F8601042EA865242EA81422CE6F3
:102BA00022F0705242F0805215E722F0705343F049
:102BB000805373E622F0705242F08052AFE71F4A12
:102BC00040010904845061E7A36ADB7959067FF567
:102BD00079ABFFF773BB194A40010904845069E7D8
:102BE000164B40011204C15078E7144B5201D158E2
:102BF0000E0317D521F0705121F4001141F08051DE
:102C0000D1500346FFF7ABBB0C4B5201D45804F430
:102C10004025B5F5802F24F0705406D044F40014FC
:102C2000D450F6E4FF23FFF79ABBFF20F1E400BF86
:102C3000000000200009104000081040000B104068
:102C400000F8D3C300F813C090F8543070B50446B0
:102C5000032B00F2B080DFE803F06E932202BF4B3B
:102C60001B7873B1BE4B021DC3F81423D3F80013B5
:102C7000D0F8F42021F03C4142F000420A43C3F86E
:102C80000023B84B1B6823B1B74A002011680246E5
:102C90009847002384F8543084F8343070BD456C74
:102CA000002D40F0CD80AF4E3368002B00F08E80B9
:102CB0002846A16C2A4698473560002800F0868097
:102CC00094F83630A94A5B019958012501F4402057
:102CD000B0F5802F1A4484F834500AD031F0705186
:102CE00048BF41F0804141F40011116094F8363042
:102CF0005B019F4A0020995884F8340001F4402079
:102D0000B0F5802F21F070511CBF41F40011995093
:102D1000934B221DC3F81423D3F80013D4F8F420E6
:102D200021F03C4142F000420A430021C3F8002355
:102D300084F8541070BD0023884A8A4D436480F89B
:102D4000353013702B60FFF7DBF9013000F09F8006
:102D500094F854305A1ED2B2012A32D9636C002B37
:102D60004FD02268D28893422FD2B4F84020B3FBD0
:102D7000F2F102FB113343BB012384F8353070BDFF
:102D8000426C002A75D190F83530012B00F0D880C4
:102D900013B9754A836C1360002319461A46184606
:102DA00084F85430FEF772FF6C4A0121032311703E
:102DB00084F8543070BD6F48B921BDE8704000F010
:102DC000D5BDA26D022B2A60C8D170BD644B221DF7
:102DD000C3F81423D3F80013D4F8F42021F03C41B5
:102DE00042F0004001430022C3F80013104613468E
:102DF000114684F85420FFF771F8032384F8543007
:102E000070BD574A211DC2F81413D2F80003D4F83C
:102E1000F41020F03C4041F000410143C2F800139F
:102E200094F83500504A136000287FF433AF03460E
:102E300001460246FFF752F8032384F8543070BD70
:102E400090F83430B0F84020002B58D14A49444B18
:102E5000096842F40022D1F8F410C3F81023D3F823
:102E6000002341F0044122F03C420A43C3F800230E
:102E700070BD90F83430B0F84010002B55D13E4A68
:102E8000374B106841F40022D0F8F410E5E794F8CD
:102E90003630364958014258012602F44025B5F52E
:102EA000802F84F8346009D032F0705248BF42F06D
:102EB000804242F40012425094F836302C4A5B01B2
:102EC0009958002501F44020B0F5802F21F0705171
:102ED00018BF41F4001184F8345018BF9950204BAA
:102EE000221DC3F81423D4F8F410D3F8002341F0C2
:102EF000004122F03C420A43C3F8002370BD1E4B40
:102F0000AA4228BF2A461968154BD1F8F41042F49A
:102F10000022C3F81021D3F8002141F0044122F02F
:102F20003C420A43C3F8002170BD134B914238BFA5
:102F30000A46186842F40022094BD0F8F410E8E77A
:102F40001046A56C084E034684F85420114635609F
:102F5000FEF7C4FF022384F8353070BDA8010020BD
:102F600000081040A0010020A4010020000910402A
:102F7000000B1040605400000000002010B5174BFB
:102F800010F0800F1B6800F00F0003EB000214BF6D
:102F900092F8D42092F8E420C2B9E8B9343393F817
:102FA0002020013AD2B2012A05D9BDE810400C48D0
:102FB000D32100F0DBBC5C6A002083F8200024B140
:102FC000586259691A69A04710BD10BD02EB820210
:102FD00003EBC2033433E2E71346E0E700000020CE
:102FE00060540000514A524B0121F0B411709869AD
:102FF0005049514A08601868504910609868504A12
:103000000860D8684F491060586A4F4A0860996A4A
:103010004E4C1160D3F800084D494E4A0860D3F871
:1030200004084D491060D3F81C084C4A0860D3F8D6
:1030300010181160D3F8140849494A4A23680860F7
:10304000D2F80002484993F85C20086093F85E10BB
:10305000002A68D1454A490110460A440E581569AC
:103060005469434A43484449146093F884400D60CE
:10307000066093F88650002C53D13C4C6D012646D7
:103080002C44AE59256964694D6093F8AC50546086
:10309000466093F8AE40002D41D0384B64011D4688
:1030A000234465591C695B698C609360344B85606F
:1030B0001B683449344A3548354C0B602568046830
:1030C0001368344E23F07C4343F080531360176839
:1030D000244B47F00807176040F8F46CD3F800223F
:1030E000A0F5867042F00402C3F80022D3F8002253
:1030F000A0F5603042F00802C3F80022D3F80022A5
:10310000402642F001024D608C60C3F80022024666
:103110004662D36A1B04FCD40120F0BC7047134BF9
:10312000BCE7164CAAE7154A95E700BF000200204D
:1031300000001040DC010020FC010020D80100202C
:10314000E4010020BC010020B801002000000020A4
:10315000E801002008020020EC0100200402002009
:10316000E0010020000C10400C020020000B104079
:10317000C0010020AC010020F00100200009104037
:1031800004011040CC010020000810400C01104048
:103190000801104000008080F8B55D4B00225120EE
:1031A00004211A70FDF70AFE5A480821FDF706FEB1
:1031B000594B5A4AD3F80012594821F00101C3F87B
:1031C0000012D3F80042574924F00C04C3F800421F
:1031D0001368554AC3600968544B11605D6898686C
:1031E0001F68534E534CA2F2F46253493760534B5D
:1031F000256010600A681B6822F07050D40354BF29
:1032000040F0805040F00050920393F85C2054BF8F
:1032100040F0806640F0006693F85E50484C4948A4
:10322000002A70D1484A6D01944645F80C602A4442
:1032300025681561076857614A6893F8865022F03F
:103240007056D70354BF46F0805646F00056970399
:1032500093F8842054BF46F0806646F00066002A4A
:103260004FD1394A6D01944645F80C602A4465688F
:103270001561476857618A6893F8AE1022F070555F
:10328000D60393F8AC304CBF45F0005545F080555F
:1032900092034CBF45F0006545F08065002B34D0AB
:1032A0002A4B8268A468490118460B440D501C61E2
:1032B0005A61274B184A1968264BC2F80012196840
:1032C000194B254A59611168244A19611168244A29
:1032D000D9611168234A59601068114A22499062E5
:1032E00008682249506208682149906008682149AD
:1032F00010600968012091615A6842F400625A60C6
:10330000F8BD124AAEE7114A8DE70F4BC9E700BF7F
:103310000002002005231C00000C1040E4010020E6
:1033200000001040E801002000081040CC010020FF
:103330000401104008011040AC01002000000020F2
:10334000F0010020C0010020000B104000091040D7
:103350000C020020E001002004020020EC0100200B
:1033600008020020B8010020BC010020D801002084
:10337000FC010020DC0100202DE9F04F83B072B683
:10338000A04DA14E2B685C1C1CBF01332B60337811
:10339000002B54D19D4B9A6812B11A68910325D421
:1033A0009B4B5A699C69144016D0200200F10C8195
:1033B000002CC0F22182220500F14081230700F198
:1033C0005C81A70400F16B81E00400F19581610349
:1033D00000F1AA8023033ED42B688A4A1BB1013B2B
:1033E000136003B962B603B0BDE8F08F9A68D207E4
:1033F0000BD501221A615B68DB0706D53378002BF9
:1034000040F04B820220FEF751FD804B9A689707EF
:10341000C6D502221A615B68DC07C1D4337803F099
:10342000FF0223B97A4B4FF0FF319A61596133782B
:10343000002B00F03E820020FEF738FDB0E70022AE
:1034400002200121FDF76EFE724A20235362D36AE7
:103450001804FCD59EE7704A704F9369D269DFF873
:10346000C8911340DFF8C8B14FEA134A002401267F
:103470004AE014F0FF0F08BF00F134039978674A5F
:103480004901DFF8B0C10A449268DCF8001001EA93
:10349000020818F0010F10D00122BA60002C00F0D1
:1034A0001B8238699969C0F312001A69091A521A05
:1034B00059611A61D878FFF761FD18F0080F1BD029
:1034C000DBF8003013F0400300F0AB814023544997
:1034D000CBF800300B68D9F80000083B0360514975
:1034E000031D0A6842F0C0420A604D4A1360082377
:1034F000CBF80030FFF7A8FB01347600072CB6B2FA
:1035000007F120073FF468AF16EA0A0FF4D0D9F8A4
:103510000000031993F8E430002BAAD003EB8303D7
:1035200000EBC3033433A9E73B4B01279A69DB69FE
:103530003E4602EA030A1FFA8AFADFF8F0904FF0DB
:103540000008394BDFF8F0B02DE00AB900F1340182
:1035500091F802C0354A4FEA4C1C6244DBF800C0C7
:1035600092680CEA0202D20713D50122C9F808209A
:10357000B8F1000F00F0C181D9F810000A69C0F35A
:103580001200121A08614A61C8780193FFF7F6FC2D
:10359000019B7600072FB6B200F03D8108F10108CB
:1035A000013709F1200916EA0A0FF2D0186808F06D
:1035B0000F02811891F8D4100029C6D001EB8101C7
:1035C00000EBC1013431C3E74FF400025A61337894
:1035D000002B40F071810D4B5B68D90703D4337821
:1035E000002B00F07681094B24F40004586810F099
:1035F000010018BF0320FEF759FC002CBFF6DBAE1C
:10360000FAE000BFA00000200002002000400C40B3
:103610000000104000800C4000081040000B1040DB
:10362000140B1040100B1040000000200009104047
:10363000080B10401408104010081040BB4B4FF40A
:1036400000625A616FF0090000F008FFFEF742F9CE
:10365000002800F03781FEF73DF90238C3B2032B92
:1036600006D83378002B00F031810620FEF71EFCCF
:1036700024F4006423077FF5A4AEAD4BAB4A1B686E
:1036800008211B6B51611B6923B1D2F80808C0F3F4
:103690000D20984724F00804A7047FF595AE3378F1
:1036A000002B40F00C81A34BA14A5968126821F409
:1036B000F06141F48071D2F8F4005960D3F800133E
:1036C00040F0044021F03C410143C3F80013136B68
:1036D00099491E699948954B002E08BF084624F465
:1036E000005400214FF0FF3682F8541099615E615A
:1036F0009861E0047FF56BAE8E498C484B682026BC
:1037000023F4F06323F001038D4A4B6006611368D4
:10371000864913F02003FAD18A48DFF834C2DFF873
:1037200034B2DFF834A2DFF83492DFF83482DFF805
:1037300034E2854F854E4FF0FF32CBF80820A0F5DC
:10374000D070CAF80820C9F80820C8F80820CCF8BA
:103750000820C0F8A821CEF80820BA604FF0011E5A
:10376000B26009270126CBF84822CAF84822C9F8D6
:103770004822C8F84822CCF84822C0F81CE047612B
:1037800006616B4E0768366827F4FE6707604FF0E6
:10379000C04E371D86F83430C0F810E33760C0F8EB
:1037A0001473D0F800E3D6F8F4702EF03C4E47F0D6
:1037B000044C4CEA0E07C0F80073306BDFF87CE174
:1037C000D0F810C05C4F0068BCF1000F18BF7746FE
:1037D0008B614A618F6110B1336B1B68984703207E
:1037E000FEF764FB24F480546FF00A0000F036FE0C
:1037F00061037FF5EFAD97E64C4B4FF000425A6105
:103800003378FBB94A4B1A6892F82100FEF74EFB59
:1038100024F00044CFE524F4802423033FF51BAEBD
:10382000DAE5DFF844C1D9F80000DCF80020C2F383
:103830004172032A18BFC2F1020300EBC303043331
:1038400003604CE6FFF7A8FC0028DBD0384A394B70
:1038500012684FF0C040111D002782F83470C3F881
:1038600010031160C3F81413D3F80003D2F8F41056
:1038700020F03C4041F004410843C3F8000358687D
:1038800020F4F06040F480705860D3F8000320F01A
:103890003C400143C3F80013B6E7FFF77DFC002866
:1038A0003FF4B0AD214B00214FF4C05299619A61B1
:1038B000A8E5FFF797FBBEE5FFF76EFC8BE6FFF789
:1038C0006BFCF0E60220FEF7F1FAC4E6FFF78AFB94
:1038D000CBE6FFF787FB86E61969B3F80CC05A6997
:1038E000614587BFCCEB010E6244A64652185A616F
:1038F000C3F810E0FFF7A8F9DFE50A69B1F80CC0DA
:10390000009262458CBFCCEB020EDDF800C04A6924
:1039100098BFC6469444C1F814C0C1F810E07600C0
:103920000193B6B2FFF790F9019B37E60000104013
:10393000000000200008104000380C8008380C807F
:1039400010001040A0091040000B1040200B104048
:103950008009104000091040200910404009104023
:1039600060091040C0091040100B1040FEE700BF76
:103970002DE9F84F06460F4636480121FDF794F928
:103980000520014604220023FDF746FC324A334B52
:1039900003219161D3F80022314922F00102C3F8DA
:1039A0000022D3F800022F4A20F00C00C3F80002D6
:1039B0000B6943F001030B611368D807FCD40120A5
:1039C00000F02CFE27490B68254A002BFBDAD36850
:1039D000254C23F0604343F08043D360236823B138
:1039E000013B2360002B00F07E81322000F0CEFDF1
:1039F00072B623681C4A591C1CBF013313601B4B51
:103A000017481A68102E2CBF3546102542F00302C5
:103A10001A601A68C5F3090C42F004021A601968AA
:103A2000134A21F4C05119608368ADB223F03E03FC
:103A300043F0220383601368C0F824C01C6D0D4955
:103A4000102C38BF1024A4B24CEA044C0122C0F858
:103A500028C028E000D2020000400C40000C1040BA
:103A60000000104010001040A0000020000810408E
:103A7000000000200401104093F8D700002834D142
:103A800093F8D800002849D193F8D90000285ED1D6
:103A900093F8DA00002873D10132D2B2072A01F17B
:103AA000040100F0898093F8D500002840F00481DB
:103AB00093F8D6000028DFD000EB800003EBC000B5
:103AC000343090F805C09445D6D1C06925441028FB
:103AD00038BF1020ADB284B2C5F30A0040EA0440FA
:103AE000086093F8D7000028CAD000EB800003EBF1
:103AF000C000343090F805C09445C1D1C069254458
:103B0000102838BF1020ADB284B2C5F30A0040EAD5
:103B10000440086093F8D8000028B5D000EB80007E
:103B200003EBC000343090F805C09445ACD1C069B7
:103B30002544102838BF1020ADB284B2C5F30A0066
:103B400040EA0440086093F8D9000028A0D000EBB8
:103B5000800003EBC000343090F805C0944597D145
:103B6000C0692544102838BF1020ADB284B2C5F317
:103B70000A0040EA0440086093F8DA0000288BD07D
:103B800000EB800003EBC00090F839C0343094455E
:103B900082D1C0692544102838BF1020ADB201324F
:103BA00084B2D2B2C5F30A0040EA0440072A086092
:103BB00001F104017FF477AF3E44B6F5007F00F2D7
:103BC0009980B5F5007F00F295804B4B4FF48462ED
:103BD0004A491A610B68494A9B06FBD410231360BB
:103BE00011460B68464A13F01003FAD14549464C7A
:103BF000DFF828B1DFF828A14448DFF82891DFF882
:103C00002881DFF828C1424F424E434D0B614B6182
:103C1000CB614B634FF0FF31CBF80030CBF8103065
:103C2000CBF80810CAF80030CAF81030CAF80810EB
:103C3000C9F80030C9F81030C9F80810C8F80030C9
:103C4000C8F81030C8F80810CCF80030CCF81030A4
:103C5000CCF808103B603B61B96033603361B16000
:103C60002B602B61A96023602361A1602362236321
:103C7000A16223642365A164036003618160CBF8C2
:103C8000A032CBF8B032CBF8A812CAF8A032CAF8EA
:103C9000B032CAF8A8121068032140F40030106056
:103CA00011615161516811F001011ED102200B46D2
:103CB000D06058B2BDE8F88F00EB800003EBC00085
:103CC000343090F805C094457FF4F2AEC0692544C5
:103CD000102838BF1020ADB284B2C5F30A0040EA04
:103CE00004400860E4E662B67FE60121D16058B284
:103CF000BDE8F88FFC23DCE7000010401000104006
:103D000000400C4000081040200B1040800B104079
:103D1000A0091040C0091040000B104000091040DD
:103D200020091040400910406009104080091040EF
:103D300082782F4B5201134499682E4A41F0420178
:103D400030B4996011692A4B41F0420111618278C7
:103D500019465201D458284D24F0705444F00064A0
:103D6000D45083785B0119442A688B68224C134035
:103D70005B06F9D540238B60236823F04003236062
:103D800003788278002B30D11C4B5201D15821F09E
:103D90003C4141F00041D15082785201D158164D3A
:103DA00021F0F84141F09041D150837810495B01F6
:103DB00019442A688B68104C13409A07F9D50223DE
:103DC0008B6022680E4B22F00202226041790D4A7C
:103DD000890141F02001196113689B06FCD40A4B4C
:103DE0002022C3F8802130BC7047014BD5E700BFCB
:103DF000000910400008104010081040000B10404F
:103E0000000010401000104000E100E010B4837882
:103E1000364A5B011A449168354B41F002019160CA
:103E20005968344A21F4F06141F480615960916924
:103E300041F080019161596821F4F06141F4007111
:103E4000596053691B0608D42B4943F6982301E0B7
:103E5000013B02D00A681406FAD5264A244B916920
:103E600021F0800191615A6942F002025A6103789F
:103E70008278002B38D11D4B5201D15821F03C41A2
:103E800041F00041D15082785201D15821F0F841DF
:103E900041F09041D150837814485B01144A184492
:103EA00083685269134099070AD4144C43F6982347
:103EB00001E0013B04D0816822680A409207F8D5EE
:103EC0000B4B0222826059690D4A21F002015961AF
:103ED0005868202120F4F06040F4806058605DF85C
:103EE000044BC2F880117047064BCDE7000B104021
:103EF000000810400000104014001040140810404A
:103F000000E100E0000910402DE9F00F4C4B8AB0B1
:103F1000186890F85C2090F87CA00192BAF1000F2C
:103F200000F09F81002A00F0048290F85E20454B4B
:103F3000520113449A68B0F86A4042F042029A6013
:103F400090F8A4300027079408970493002B00F002
:103F5000948190F884200292002A00F0078290F861
:103F60008620384B52011344079FB0F8922099687D
:103F7000174390F8CC2041F04201996007970592D1
:103F8000002A00F0838190F8AC7090F8AE2003977F
:103F9000002F00F0FA812B4B520113449968B0F8BE
:103FA000BA2041F042019960079B134307931A46D8
:103FB0004AB3254B17461969B0F86A2041F042010F
:103FC000174219610AD090F85E2003F58073520100
:103FD000D15821F0705141F00061D150B0F89230C9
:103FE000079A1A4209D090F88620164B5201D158F0
:103FF00021F0705141F00061D150B0F8BA30079F04
:104000001F4240F0D081089B002B32D00E4B0F4A4C
:10401000596821F4F06141F480615960916941F07F
:1040200080019161596821F4F06141F40071596097
:104030005369190613D4064943F698230CE000BFD0
:10404000000000200009104000081040000010404F
:1040500014001040013B02D00A681206FAD5BC4A8F
:10406000BC4B916921F0800191615A6942F00202D2
:104070005A61079AB0F89260B0F8BA50002A5BD043
:10408000EB43F1430693B44F079BCDF824A043F6CE
:1040900098224FF040096FEA040B8A46234213D05E
:1040A00090F85EC0AD494FEA4C1C6144D7F80080DF
:1040B000D1F808C008EA0C0C1CF0400F04D003EA49
:1040C0000B039BB2C1F80890334213D090F886C01E
:1040D000A2494FEA4C1C6144D7F80080D1F808C0CF
:1040E00008EA0C0C1CF0400F04D003EA0A039BB250
:1040F000C1F808902B4215D090F8AEC097494FEA0E
:104100004C1C6144D7F80080D1F808C008EA0C0CB8
:104110001CF0400F07D0DDF818C0C1F8089003EA82
:104120000C039BB20BB1013AB8D18A4BDDF824A045
:104130001A6922F040021A61BAF1000F40F06D8155
:10414000049A002A40F05281059B002B40F03681F2
:10415000E74304976FEA060AEF43DFF80C92DFF8B3
:10416000F8810899079B43F698224FF0020CCDF88E
:1041700014A00697019F002F00F0C080234215D0A5
:1041800090F85EA0754F4FEA4A1A5744D8F800B02D
:10419000D7F808A00BEA0A0A1AF0020F06D0DDF8D9
:1041A00010A0C7F808C003EA0A039BB2029F002FC1
:1041B00000F08A80334215D090F886A0674F4FEA0E
:1041C0004A1A5744D8F800B0D7F808A00BEA0A0AF0
:1041D0001AF0020F06D0DDF814A0C7F808C003EAF1
:1041E0000A039BB2039F002F55D02B4215D090F8A5
:1041F000AEA05A4F4FEA4A1A5744D8F800B0D7F841
:1042000008A00BEA0A0A1AF0020F06D0DDF818A07F
:10421000C7F808C003EA0A039BB203B909B1013A1F
:10422000A8D1079A62B14B4B49491C694FF484608D
:1042300024F002044A4A1C61086113689B06FCD4FE
:10424000089B53B1434B5A6922F002025A615A68E3
:1042500022F4F06242F480625A600AB0BDE8F00FC6
:104260007047B0F86A40CDF820A0CDF81CA090F8B7
:10427000A4300493002B7FF46CAE90F88470029706
:1042800090F8CC200592002A7FF47DAE90F8AC30F7
:10429000079A03938CE62942BFD090F8AEA0314F25
:1042A0004FEA4A1A5744D7F808B0D9F800A00BEAE9
:1042B0000A0A1AF0020FB2D0DDF818A0C7F808C039
:1042C00001EA0A0189B2A8E731428BD090F886A0B2
:1042D000244F4FEA4A1A5744D7F808B0D9F800A03B
:1042E0000BEA0A0A1AF0020F3FF47CAFDDF814A0C3
:1042F000C7F808C001EA0A0189B273E721423FF416
:1043000055AF90F85EA0174F4FEA4A1A5744D7F8B6
:1043100008B0D9F800A00BEA0A0A1AF0020F3FF41D
:1043200045AFDDF810A0C7F808C001EA0A0189B25C
:104330003CE790F85E200B4B520113449A68B0F8AA
:104340006A4042F002029A60019B089407938EE74C
:1043500000001040000810401008104000091040F4
:1043600010001040000B10401408104090F88620F8
:10437000384B520113449968B0F8922041F0020181
:104380009960089B134308937AE7324B5201134418
:104390009968B0F8BA20089F41F00201174399606C
:1043A0000897079A04E690F8AE202B4B5201D1589B
:1043B00021F0705141F00061D15024E690F8AC300A
:1043C00090F8AE20002B3FD1224B5201D15821F062
:1043D0003C4141F00041D15090F8AE205201D158FB
:1043E00021F0F84141F09041D150B1E690F884308D
:1043F00090F8862063BB174B5201D15821F03C4105
:1044000041F00041D15090F886205201D15821F05E
:10441000F84141F09041D15096E690F85C3090F828
:104420005E209BB90B4B5201D15821F03C4141F029
:104430000041D15090F85E205201D15821F0F8414E
:1044400041F09041D1507BE6034BC7E7024BF3E7C5
:10445000014BDAE7000B10400009104010F10B0F80
:104460002DE9F84F064601D0FFF74EFDDFF89C908E
:10447000224FDFF89C8001244FF0000AD9F8002079
:1044800004EB840102EBC10101F1340393F82050E5
:10449000303175B15D6A83F820A055B1C3F824A00E
:1044A000126A02F0FF12BA420CD0304659691A69FA
:1044B000A8470134042CE1D1114B2022C3F88021FC
:1044C000BDE8F88F91F804E099780E480E4A4FEA5B
:1044D000411CB3F80EB060446244BEF1000F0AD133
:1044E000C2F800E04FEA0B4BD8F8001021EA0B02AB
:1044F000C8F80020D9E7C0F800A0F5E704000500DF
:1045000000E100E000091040000B10400000002016
:104510001C081040194B70B51A69D10600D470BD43
:104520001021174A9961596B12680A445A6372B68E
:10453000144D154C2B685A1C22681CBF01332B608C
:104540005AB11168134601391160264621680BB132
:104550001A6842B12B6821606BB1013B2B60002BC4
:10456000DDD162B670BD98681A734B6820B12360C4
:1045700080473368EAE770BD1946E8E70004014068
:1045800020020020A000002010020020204B2DE976
:10459000F0011B6844F62064A0FB030100258D4256
:1045A00008BF844283B01BD21A4F1B4A44F61F68CF
:1045B0004FF0FF337E6A1FFA86FC7E6AB6B2ADF812
:1045C0000460BDF80460B6B2CCEB0606B6B2464550
:1045D000F3D9801841EB03018D4208BF8442E9D32F
:1045E00080B218B903B0BDE8F001704709494A6AC2
:1045F00092B24B6A9BB2ADF80630BDF806309BB262
:104600009B1A9BB29842F4D803B0BDE8F001704702
:104610002002002000040140E0B1FFFF2B4B2DE9F8
:10462000F0011A6883B0A0FB022352EA03010AD109
:104630002749284BA1FB00201A68C008A0FB0223D1
:1046400052EA030428D04EF6602400259D4208BF9C
:1046500094421BD2204F21484EF65F284FF0FF3185
:104660007E6A1FFA86FC7E6AB6B2ADF80460BDF8B9
:104670000460B6B2CCEB0606B6B24645F3D91218C2
:1046800043EB01039D4208BF9442E9D392B25AB969
:1046900003B0BDE8F0017047A1FB0032104BD20817
:1046A0001B68A2FB0323CEE70B48416A89B2436A29
:1046B0009BB2ADF80630BDF806309BB25B1A9BB2D8
:1046C0009A42F4D803B0BDE8F00170471802002008
:1046D000CDCCCCCC1402002000040140A015FFFF7B
:1046E0001C0200202DE9F047464888B0002401272D
:1046F0008DF810708DF811408DF812408DF8134030
:104700008DF814408DF815408DF816408DF817403F
:104710008DF818408DF819408DF81A408DF81B401F
:104720008DF81C408DF800408DF801408DF8024056
:104730008DF803408DF804408DF805408DF8064053
:104740008DF807408DF808408DF809408DF80A4033
:10475000FBF758FE00F543455035DFF8C8E000F59B
:10476000F42200F59C53284E2849DFF8BC804FEA1C
:10477000551A02F59072083300F5FA70A8FB02583A
:10478000AEFB0A5AA6FB032EA1FB0030DFF89CC04B
:104790001F4A204EDFF898901F4D4FEA5E3E830976
:1047A00039464FEADA1A4FEA984802271B48C2F8FE
:1047B00000E0CCF800803360C9F800A08DF80670E6
:1047C000FCF772FA4FF6FF73EB616A462146284602
:1047D000FCF7AAFF284604A9FCF742FF4FF0FF337D
:1047E000AB61EA680E4B42F01002EA603168686A19
:1047F0004FF4805201446963C3F880211A6008B005
:10480000BDE8F087108102005917B7D1D34D62106F
:104810001C0200202002002000040140006202006F
:1048200000E100E0C55A7C0A83DE1B431802002029
:104830001402002090B9072910D10A4B9A79511F10
:10484000C9B2032901D9102A08D15B79054A022B84
:1048500004D81379022B01D8002070474FF0FF30A5
:10486000704700BF0400002010B500B909B900204E
:1048700010BD044A044C1160207000F059FC002067
:1048800010BD00BF280200202D02002008B50346FD
:1048900020B9034A0120137000F04AFC002008BD33
:1048A0002C02002070B50B48FDF71CF810B10A4B24
:1048B000187870BD6424084D03E0FFF767FE013CE3
:1048C00006D02B786420044E002BF6D0012070BD5A
:1048D000307870BD2C5500002402002010B50178FE
:1048E00001F07F03212B06D14378212B0DD0222B01
:1048F00004D0202B1BD06FF0020010BD8388002B4A
:10490000F9D1C0880028F6D110BD4388002BF2D120
:104910008488002CEFD1C288072AECD1C909EAD0DB
:1049200020460C492346FDF7D9FA204610BD43889E
:10493000002BE0D18388002BDDD1C288072ADAD191
:10494000CC09D8D120460349034BFDF79FF92046F7
:1049500010BD00BF0400002035480000052908D024
:10496000052802D0062900D07047044B00221A7097
:104970007047024B01221A70704700BF24020020CA
:10498000F8B506460C4610B1194D2B780BB1002036
:10499000F8BD0127384617494022174B2F70FDF705
:1049A00075F9002C17DD2B780BB908E0D4B1012084
:1049B000FFF7ECFD2B78013C002BF7D194B10F4BA6
:1049C0000C4C1B68304600255A1C2146E55400F06B
:1049D00077FC0120F8BD2B78002BF0D02B78002B32
:1049E000F9D1ECE70120FCF7F7FE0020F8BD00BF8D
:1049F0002D0200203002002069480000280200201B
:104A000038B5C8B1C9B10E4C2378B3B90B0655BF40
:104A10000A467F2515462A4601460A4800F050FC02
:104A20002A46812001250749074B2570FDF756FAD4
:104A30002378002BFCD1012038BD002038BD00BFF9
:104A40002C020020700200208D4800000F4B70B532
:104A5000D3F81011D3F8142145F255540A401440EC
:104A6000C3F81C418CB10A4E012594FAA4F3B3FAA1
:104A700083F3DBB205FA03F2184656F8233024EA32
:104A8000020403B19847002CEFD170BD00600040D4
:104A9000B00200200F4B70B5D3F81011D3F81421D9
:104AA0004AF6AA240A401440C3F81C418CB10A4EAD
:104AB000012594FAA4F3B3FA83F3DBB205FA03F207
:104AC000184656F8233024EA020403B19847002C14
:104AD000EFD170BD00600040B002002010B5294C3D
:104AE000002021460246FCF7C5FC21460120002299
:104AF000FCF7C0FC214602200022FCF7BBFC21464B
:104B000003200022FCF7B6FC214604200022FCF71B
:104B1000B1FC214605200022FCF7ACFC2146062012
:104B20000022FCF7A7FC214607200022FCF7A2FC8C
:104B300000200246FF21FCF705FD0120FF21002295
:104B4000FCF700FD0220FF210022FCF7FBFC032004
:104B5000FF210022FCF7F6FC0420FF210022FCF7D5
:104B6000F1FC0520FF210022FCF7ECFC0620FF21D0
:104B70000022FCF7E7FCBDE810400720FF210022DF
:104B8000FCF7E0BC00F00FF010B5274C07202749D8
:104B90000022FCF76FFC214606200022FCF76AFC8D
:104BA000214605200022FCF765FC21460420002256
:104BB000FCF760FC214603200022FCF75BFC214649
:104BC00002200022FCF756FC214601200022FCF7BF
:104BD00051FC002002464FF02041FCF74BFC07201F
:104BE00001460022FCF7AEFC062007210022FCF75C
:104BF000A9FC052007210022FCF7A4FC04200721C2
:104C00000022FCF79FFC032007210022FCF79AFCFE
:104C1000022007210022FCF795FCBDE8104001208E
:104C200007210022FCF78EBC00E00FF000E00F50DF
:104C300010B5012104462248FCF736F8214803212B
:104C4000FCF7BCF840212048FBF718FE0120FCF7D8
:104C50004FFA1E480121FCF727F81D4B0022996AE4
:104C60001C489A62FCF73CFB08200121FCF770FB12
:104C700010200121FCF76CFB80200121FCF768FB70
:104C80004FF480700121FCF763FB4FF400700121A9
:104C9000FCF75EFB34B9FFF721FF0D4A536E002B82
:104CA000FCD110BD4FF44020FCF7ACFC4FF4803039
:104CB000FCF740FB084BDA6F42F00802DA67EAE7DC
:104CC000004304000200060030000C0000340E0017
:104CD00000A008400857000000800C401028034640
:104CE0000A4608D80748084950F8230051F823100D
:104CF0002AB9FCF739BB00210846002AF9D0012265
:104D0000FCF732BB80560000C45600002DE9F84382
:104D1000804600F0E6FA5C4A0746566E5A4B002E73
:104D2000FBD101221A66FFF72FFF584CDFF8609184
:104D300034E06A07217CA07847D42B07617CE078B7
:104D40004AD4EA06A17C20794DD4AB06E17C607997
:104D500050D46A06217DA07953D42B06617DE07979
:104D600056D4EA05A17D207A59D4AB05E17D607A5D
:104D70005CD46A05217EA07A5FD42B05617EE07A3F
:104D800062D4EA04A17E207B65D4AB04E17E607B23
:104D900068D40136072E04F11C046BD0B742CABF99
:104DA00018F806300023203B39F81350A17BEA079E
:104DB000207864D4AB07E17B6078BAD50122FCF798
:104DC000D3FA6A07217CA078B7D50122FCF7CCFA88
:104DD0002B07617CE078B4D50122FCF7C5FAEA061E
:104DE000A17C2079B1D50122FCF7BEFAAB06E17CAB
:104DF0006079AED50122FCF7B7FA6A06217DA07969
:104E0000ABD50122FCF7B0FA2B06617DE079A8D57D
:104E10000122FCF7A9FAEA05A17D207AA5D5012295
:104E2000FCF7A2FAAB05E17D607AA2D50122FCF77E
:104E30009BFA6A05217EA07A9FD50122FCF794FA9D
:104E40002B05617EE07A9CD50122FCF78DFAEA04FD
:104E5000A17E207B99D50122FCF786FAAB04E17E86
:104E6000607B96D501220136FCF77EFA072E04F10D
:104E70001C0493D1044B00221A66BDE8F88301227A
:104E8000FCF772FA96E700BF00A0084060550000EA
:104E90001C570000074880470749084A084B9B1ADF
:104EA00040F30580043BC858D0503FF7FBAF05489E
:104EB00000470000D95000004858000000000020C2
:104EC0008000002055010000FEE7FEE7FEE7FEE758
:104ED000FEE7FEE7FEE7FEE7FEE7FEE7FEE7FEE7AA
:104EE000FEE7FEE7FEE7FEE7FEE7FEE7FEE7FEE79A
:104EF000FEE7FEE7FEE7FEE7FEE7FEE7FEE7FEE78A
:104F0000FEE7FEE7FEE7FEE7FEE7FEE7FEE7FEE779
:104F1000FEE7FEE7FEE7FEE7FEE7FEE7FEE7FEE769
:104F2000FEE7FEE7FEE7FEE7FEE700BF2A4AD36A98
:104F300003F47053B3F5805F2AD0B3F5005F24D03B
:104F4000B3F5006F11D0D36803F4E063B3F5007FCD
:104F50003FD020D9B3F5806F39D0B3F5A06F34D0EE
:104F6000B3F5407F25D0002101E01C4B19681A4B96
:104F70001B4A18685B68C0F382300130B1FBF0F067
:104F800003F00F03D84010607047164B1968EEE726
:104F90004FF40041EBE773B1B3F5807FE3D1124BDF
:104FA000124AD96C124BB1F1985F34BF11461946C1
:104FB000DDE71049DBE70C4B0F4AD96C0F4BB1F121
:104FC000985F34BF11461946D1E70D49CFE70D4927
:104FD000CDE70D49CBE700BF00800C401400002056
:104FE000F402002010000020B081E00FC0CF6A0062
:104FF00040B56400809FD50040420F00804F1200F2
:10500000003FAB01406F4001C0D8A700234AD36ADC
:1050100003F47053B3F5805F1DD0B3F5005F17D074
:10502000B3F5006F11D0D36803F4E063B3F5007FEC
:1050300032D013D9B3F5806F2CD0B3F5A06F27D041
:10504000B3F5407F18D000207047154B18687047A3
:10505000144B186870474FF40040704773B1B3F5B4
:10506000807FF0D1104B114AD86C114BB0F1985F92
:1050700034BF1046184670470E4870470A4B0E4A18
:10508000D86C0E4BB0F1985F34BF1046184670478D
:105090000B4870470B4870470B48704700800C4026
:1050A0001400002010000020B081E00FC0CF6A0083
:1050B00040B56400809FD50040420F00804F120031
:1050C000003FAB01406F4001C0D8A700014B1868FA
:1050D000704700BF14000020704700BF4FF400402D
:1050E000704700BF4FF47A70704700BF014B1868DB
:1050F000704700BF1000002008B50B480121FBF7E6
:10510000D3FD0A480121FBF7CFFD0420024602210E
:105110000023FCF781F80420024603210023FCF75A
:105120007BF8002008BD00BF1081020000D2020001
:10513000012838B51BD80F4B13F8304003EBC000E3
:10514000052C456801D80F2D04D90B4840F22221C7
:10515000FEF70CFC012303FA05F504EBC404A400DC
:1051600004F1804404F5C044A561002038BD4FF02F
:10517000FF3038BD24580000D45700004FF07E6344
:1051800018682DE9F00310B9BDE8F003704727490E
:10519000274B4A6C102042F400524A64D3F8204155
:1051A0000A4644F00404C3F82041D3F8204124F413
:1051B0004074C3F82041D3F8B84024F47064C3F8B5
:1051C000B840D3F8B84044F48064C3F8B8400862EB
:1051D000D36A9906FCD5174BDA68D20121D4D86876
:1051E000154ADFF86080DFF86090144D144C40F0F1
:1051F000807002274FF480764FF060414FF00F0C23
:10520000D860C8F800900120C2F810C0C2F8F07051
:10521000C2F80463C1F8B05FC1F8804EBDE8F00386
:1052200070470120BDE8F003704700BF00800C40CC
:1052300000600040F0ED00E0000004E055CEACC599
:1052400009000100001000E0FF13014008B5074B02
:10525000044613B10021AFF30080054B1868836A40
:1052600003B19847204600F045F800BF0000000059
:105270003858000070B50E4B0E4D0024ED1AAD10DD
:105280001E46AC4204D056F8242090470134F8E77B
:1052900000F032F8084D094B0024ED1AAD101E46FF
:1052A000AC4204D056F8242090470134F8E770BD92
:1052B00078000020780000207C000020780000208A
:1052C00010B50023934203D0CC5CC4540133F9E7FA
:1052D00010BD02440346934202D003F8011BFAE7D3
:1052E0007047034613F8012B002AFBD1181A013826
:1052F00070470000FEE700BFF8B500BFF8BC08BC6F
:105300009E467047F8B500BFF8BC08BC9E46704783
:10531000757362636F6D7000646F6E6500000000EE
:105320006661696C000000002E2E2F656D6C69624D
:105330002F656D5F636D752E630000002E2E2F6547
:105340006D6C69622F656D5F6770696F2E63000019
:105350002E2E2F656D6C69622F656D5F6C63642EF8
:10536000630000002E2E2F656D6C69622F656D5FE6
:1053700073797374656D2E63000000002E2E2F6507
:105380006D6C69622F656D5F74696D65722E630067
:10539000433A5C53696C69636F6E4C6162735C5332
:1053A000696D706C696369747953747564696F5C55
:1053B00076325C646576656C6F7065725C73646B85
:1053C000735C65666D33325C76322F656D6C696235
:1053D0002F696E632F656D5F74696D65722E68004D
:1053E0002E2E2F647269766572732F7573622F6526
:1053F0006D7573622F656D5F757362642E63000057
:105400004E4F4E4520202020202000004154544182
:105410004348454420200000504F57455245442002
:105420002020000044454641554C542020200000D7
:10543000414444524553534544200000434F4E4697
:10544000494755524544000053555350454E444535
:1054500044200000554E444546494E454420000036
:105460002E2E2F647269766572732F7573622F65A5
:105470006D7573622F656D5F7573626465702E6301
:10548000000000004855000010550000A454000022
:10549000000000005D490000DD4800000000000041
:1054A0000000000024035300690067006E006100E3
:1054B0006C002000470065006E006500720061000E
:1054C00074006F0072002000000000000902430019
:1054D000020100C03209040000010202000005249C
:1054E0000020010524010001042402020524060015
:1054F00001070582034000FF09040100020A0000C1
:10550000000705810240000007050102400000007D
:105510001A034C0075006B0074006500630068009E
:10552000200049006E0063002E0000004C55000072
:10553000CC54000084540000030000000C00002044
:10554000905400000000000004030904120100024E
:105550000200004044250300000001020001000099
:1055600001010507070304020302040605060D0EE8
:105570000E0E0D0D0D0D0E0E0E0E0D0D010105077B
:10558000070304020302040605060F1010100F0F94
:105590000F0F101010100F0F010105070703040271
:1055A0000302040605061112121211111111121232
:1055B0001212111101010507070304020302040678
:1055C0000506131C1C1C131313131C1C1C1C131387
:1055D00000010507060203010302040604051D1E5F
:1055E0001E1E1D1D1D1D1E1E1E1E1D1D000105074C
:1055F000060203010302040604051F2020201F1FCA
:105600001F1F202020201F1F010105070703040280
:105610000302040605062122222221212121222221
:105620002222212107050201030604232323232329
:10563000232307050201030604242424242424240C
:10564000070502010306042525252525252507052F
:105650000201030604262626262626260001070226
:10566000062727272727000000000000000013124C
:1056700011100F0E0D0C0000000021252426000043
:105680000100000000000000030000000200000014
:105690000000000003000000040000000000000003
:1056A00005000000000000000000000007000000EE
:1056B00005000000060000000700000007000000D1
:1056C000040000000C000000200000002700000083
:1056D0000C0000001C0000000C0000000C0000008A
:1056E0001E00000027000000220000002300000030
:1056F0000C0000000C0000000C0000001D00000069
:105700001F0000002700000001000000030040000F
:105710000C0000000000000000000000000000116C
:1057200080020000000002060000200039000F0087
:105730000000401500204004001000223F00060039
:105740005B044F0466046D047D0407007F046F044E
:1057500000000000000A000080200000FFFF770426
:10576000790A3900B020790071007D0476040600C2
:105770000E00700A3800B602B6083F0073043F08F6
:10578000730C6D0401113E0030223628802A6E040D
:105790000922390080080F0001000800000158109C
:1057A0007C0458005E04582071040C0C740404003E
:1057B0000E00700C3800541454045C047304670425
:1057C0005004080C78001C0010201428802A0C08B3
:1057D00048200000433A5C53696C69636F6E4C610A
:1057E00062735C53696D706C696369747953747525
:1057F00064696F5C76325C646576656C6F70657247
:105800005C73646B735C65666D33325C76322F65F6
:105810006D6C69622F696E632F656D5F6770696F6C
:105820002E680000040000000200000004000000D8
:1058300003000000430000001800002000000000EA
:0858400014A9FF7F0100000024
:10584800A400002000C201000000080001010202BB
:1058580000800000006CDC02000000000000000076
:105868000000000000000000000000000000000030
:105878000000000000000000345800000000000094
:105888000000000000000000000000000000000010
:105898000000000000000000000000000000000000
:1058A80000000000000000000000000000000000F0
:1058B80000000000000000002501000001010000B8
:0400000300004E9516
:00000001FF
